291198512A42002 8512010000260000N0933000W325530006   09002000038                    NDBC                085YYNNNNNNN    
291198512B42002 8512010000101+222    1009808481542              008041         2627          059      091404            
291198512C42002 8512010000       50030010000000000400100000000005001000000000060010000000000700100000000                
291198512C42002 8512010000       50080010000000000900100000000010001000000000110010000000001200100000007                
291198512C42002 8512010000       50130010000004401400100000120015001000002290160010000036301700100000407                
291198512C42002 8512010000       50180010000026501900100000151020001000001660210010000015102200100000115                
291198512C42002 8512010000       50230010000012502400100000130025001000001310260010000012502700100000113                
291198512C42002 8512010000       50280010000013102900100000147030001000001380310010000012403200100000120                
291198512C42002 8512010000       50330010000011103400100000087035001000000650360010000005903700100000066                
291198512C42002 8512010000       3038001000000710390010000005104000100000039                                            
291198512A42002 8512010100260000N0933000W325530006   09002000038                    NDBC                085YYNNNNNNN    
291198512B42002 8512010100101+222    1010009171529              008040         2611          063      101104            
291198512C42002 8512010100       50030010000000000400100000000005001000000000060010000000000700100000000                
291198512C42002 8512010100       50080010000000000900100000000010001000000000110010000000001200100000005                
291198512C42002 8512010100       50130010000003701400100000146015001000002820160010000030901700100000298                
291198512C42002 8512010100       50180010000028701900100000207020001000001530210010000020102200100000227                
291198512C42002 8512010100       50230010000017902400100000145025001000001550260010000016002700100000180                
291198512C42002 8512010100       50280010000019202900100000147030001000001160310010000011903200100000132                
291198512C42002 8512010100       50330010000013003400100000112035001000000900360010000008603700100000082                
291198512C42002 8512010100       3038001000000650390010000004904000100000050                                            
291198512A42002 8512010200260000N0933000W325530006   09002000038                    NDBC                085YYNNNNNNN    
291198512B42002 8512010200101+222    1010009751539              008039         2597          059      110704            
291198512C42002 8512010200       50030010000000000400100000000005001000000000060010000000000700100000000                
291198512C42002 8512010200       50080010000000000900100000000010001000000000110010000000001200100000000                
291198512C42002 8512010200       50130010000002801400100000088015001000001620160010000023801700100000277                
291198512C42002 8512010200       50180010000025001900100000215020001000001980210010000017902200100000164                
291198512C42002 8512010200       50230010000016302400100000181025001000001970260010000017402700100000132                
291198512C42002 8512010200       50280010000013902900100000168030001000001650310010000015803200100000156                
291198512C42002 8512010200       50330010000013203400100000117035001000001070360010000008103700100000069                
291198512C42002 8512010200       3038001000000790390010000007204000100000061                                            
291198512A42002 8512010300260000N0933000W325530006   09002000038                    NDBC                085YYNNNNNNN    
291198512B42002 8512010300101+222    1010209111564              009039         2588          056      101104            
291198512C42002 8512010300       50030010000000000400100000000005001000000000060010000000000700100000000                
291198512C42002 8512010300       50080010000000000900100000000010001000000000110010000000001200100000001                
291198512C42002 8512010300       50130010000002701400100000068015001000001330160010000021301700100000297                
291198512C42002 8512010300       50180010000033501900100000295020001000002530210010000026002200100000259                
291198512C42002 8512010300       50230010000021602400100000239025001000003090260010000031402700100000295                
291198512C42002 8512010300       50280010000029102900100000259030001000002290310010000020303200100000173                
291198512C42002 8512010300       50330010000017003400100000180035001000001390360010000010003700100000103                
291198512C42002 8512010300       3038001000000940390010000005604000100000045                                            
291198512A42002 8512010400260000N0933000W325530006   09002000038                    NDBC                085YYNNNNNNN    
291198512B42002 8512010400101+223    1010409541597              010038         2583          037      115504            
291198512C42002 8512010400       50030010000000000400100000000005001000000000060010000000000700100000000                
291198512C42002 8512010400       50080010000000000900100000000010001000000000110010000000001200100000000                
291198512C42002 8512010400       50130010000002701400100000077015001000001170160010000014301700100000199                
291198512C42002 8512010400       50180010000027301900100000290020001000002770210010000032502200100000391                
291198512C42002 8512010400       50230010000037002400100000326025001000002870260010000032502700100000410                
291198512C42002 8512010400       50280010000036102900100000268030001000002240310010000017803200100000172                
291198512C42002 8512010400       50330010000016903400100000129035001000001090360010000011903700100000101                
291198512C42002 8512010400       3038001000000960390010000008404000100000063                                            
291198512A42002 8512010500260000N0933000W325530006   09002000038                    NDBC                085YYNNNNNNN    
291198512B42002 8512010500101+223    1010507791620              010040         2580          048      086604            
291198512C42002 8512010500       50030010000000000400100000000005001000000000060010000000000700100000000                
291198512C42002 8512010500       50080010000000000900100000000010001000000000110010000000001200100000001                
291198512C42002 8512010500       50130010000002501400100000066015001000001070160010000016401700100000193                
291198512C42002 8512010500       50180010000029201900100000429020001000004860210010000049302200100000404                
291198512C42002 8512010500       50230010000037502400100000448025001000004090260010000033102700100000260                
291198512C42002 8512010500       50280010000018002900100000156030001000001510310010000014603200100000164                
291198512C42002 8512010500       50330010000016403400100000125035001000000950360010000010703700100000104                
291198512C42002 8512010500       3038001000000950390010000008004000100000068                                            
291198512A42002 8512010600260000N0933000W325530006   09002000038                    NDBC                085YYNNNNNNN    
291198512B42002 8512010600101+223    1010207911646              010041         2579          053      091404            
291198512C42002 8512010600       50030010000000000400100000000005001000000000060010000000000700100000000                
291198512C42002 8512010600       50080010000000000900100000000010001000000000110010000000001200100000009                
291198512C42002 8512010600       50130010000002901400100000044015001000000820160010000015401700100000304                
291198512C42002 8512010600       50180010000054001900100000597020001000004320210010000036702200100000389                
291198512C42002 8512010600       50230010000034602400100000334025001000003350260010000028502700100000229                
291198512C42002 8512010600       50280010000018902900100000161030001000001660310010000015203200100000121                
291198512C42002 8512010600       50330010000011803400100000111035001000000900360010000008203700100000095                
291198512C42002 8512010600       3038001000000950390010000005804000100000044                                            
291198512A42002 8512010700260000N0933000W325530006   09002000038                    NDBC                085YYNNNNNNN    
291198512B42002 8512010700101+223    1010008721676              010040         2580          053      101104            
291198512C42002 8512010700       50030010000000000400100000000005001000000000060010000000000700100000000                
291198512C42002 8512010700       50080010000000000900100000000010001000000000110010000000001200100000011                
291198512C42002 8512010700       50130010000003201400100000077015001000001570160010000022001700100000268                
291198512C42002 8512010700       50180010000042301900100000594020001000005330210010000033102200100000244                
291198512C42002 8512010700       50230010000030702400100000341025001000003030260010000031402700100000306                
291198512C42002 8512010700       50280010000024702900100000223030001000002240310010000018703200100000137                
291198512C42002 8512010700       50330010000010803400100000109035001000001140360010000011103700100000105                
291198512C42002 8512010700       3038001000001010390010000007304000100000052                                            
291198512A42002 8512010800260000N0933000W325530006   09002000038                    NDBC                085YYNNNNNNN    
291198512B42002 8512010800101+223    1009907971727              011042         2580          045      101104            
291198512C42002 8512010800       50030010000000000400100000000005001000000000060010000000000700100000000                
291198512C42002 8512010800       50080010000000000900100000000010001000000000110010000000001200100000020                
291198512C42002 8512010800       50130010000004901400100000069015001000001810160010000025701700100000402                
291198512C42002 8512010800       50180010000067701900100000674020001000004910210010000055002200100000700                
291198512C42002 8512010800       50230010000062302400100000444025001000003160260010000025902700100000209                
291198512C42002 8512010800       50280010000017502900100000177030001000001550310010000015103200100000178                
291198512C42002 8512010800       50330010000016103400100000117035001000000960360010000010603700100000091                
291198512C42002 8512010800       3038001000000580390010000004704000100000054                                            
291198512A42002 8512010900260000N0933000W325530006   09002000038                    NDBC                085YYNNNNNNN    
291198512B42002 8512010900101+222    1009308691765              011043         2579          056      101104            
291198512C42002 8512010900       50030010000000000400100000000005001000000000060010000000000700100000000                
291198512C42002 8512010900       50080010000000000900100000000010001000000000110010000000001200100000018                
291198512C42002 8512010900       50130010000004401400100000088015001000001660160010000030801700100000570                
291198512C42002 8512010900       50180010000084701900100000838020001000005840210010000051102200100000632                
291198512C42002 8512010900       50230010000061302400100000484025001000003530260010000022302700100000159                
291198512C42002 8512010900       50280010000014202900100000125030001000001420310010000015103200100000124                
291198512C42002 8512010900       50330010000011003400100000103035001000001060360010000011803700100000103                
291198512C42002 8512010900       3038001000000940390010000007704000100000062                                            
291198512A42002 8512011000260000N0933000W325530006   09002000038                    NDBC                085YYNNNNNNN    
291198512B42002 8512011000101+223    1009208511750              011043         2578          056      096304            
291198512C42002 8512011000       50030010000000000400100000000005001000000000060010000000000700100000000                
291198512C42002 8512011000       50080010000000000900100000000010001000000000110010000000001200100000019                
291198512C42002 8512011000       50130010000005401400100000109015001000002590160010000047501700100000688                
291198512C42002 8512011000       50180010000085001900100000776020001000005440210010000036902200100000343                
291198512C42002 8512011000       50230010000037102400100000399025001000004160260010000031602700100000232                
291198512C42002 8512011000       50280010000023402900100000196030001000001490310010000014603200100000152                
291198512C42002 8512011000       50330010000015203400100000153035001000001170360010000008903700100000089                
291198512C42002 8512011000       3038001000000740390010000005704000100000059                                            
291198512A42002 8512011100260000N0933000W325530006   09002000038                    NDBC                085YYNNNNNNN    
291198512B42002 8512011100101+223    1009608091775              010043         2575          053      086604            
291198512C42002 8512011100       50030010000000000400100000000005001000000000060010000000000700100000000                
291198512C42002 8512011100       50080010000000000900100000000010001000000000110010000000001200100000015                
291198512C42002 8512011100       50130010000004701400100000142015001000002850160010000034101700100000409                
291198512C42002 8512011100       50180010000053401900100000653020001000006410210010000048502200100000368                
291198512C42002 8512011100       50230010000034102400100000331025001000002820260010000025702700100000261                
291198512C42002 8512011100       50280010000022702900100000164030001000001620310010000018403200100000147                
291198512C42002 8512011100       50330010000010503400100000080035001000000630360010000006003700100000056                
291198512C42002 8512011100       3038001000000590390010000005404000100000051                                            
291198512A42002 8512011200260000N0933000W325530006   09002000038                    NDBC                085YYNNNNNNN    
291198512B42002 8512011200101+222    1009807851772              011044         2573          056      086604            
291198512C42002 8512011200       50030010000000000400100000000005001000000000060010000000000700100000000                
291198512C42002 8512011200       50080010000000000900100000000010001000000000110010000000001200100000001                
291198512C42002 8512011200       50130010000003901400100000118015001000003190160010000058201700100000812                
291198512C42002 8512011200       50180010000091601900100000803020001000005590210010000036202200100000307                
291198512C42002 8512011200       50230010000031302400100000284025001000002780260010000028202700100000224                
291198512C42002 8512011200       50280010000018102900100000148030001000001390310010000014103200100000098                
291198512C42002 8512011200       50330010000007103400100000094035001000001190360010000012403700100000097                
291198512C42002 8512011200       3038001000000630390010000004804000100000050                                            
291198512A42002 8512011300260000N0933000W325530006   09002000038                    NDBC                085YYNNNNNNN    
291198512B42002 8512011300101+223    1010407251808              011045         2572          053      086604            
291198512C42002 8512011300       50030010000000000400100000000005001000000000060010000000000700100000000                
291198512C42002 8512011300       50080010000000000900100000000010001000000000110010000000101200100000023                
291198512C42002 8512011300       50130010000011901400100000237015001000004860160010000066201700100000675                
291198512C42002 8512011300       50180010000094501900100001000020001000006270210010000038202200100000320                
291198512C42002 8512011300       50230010000027302400100000266025001000002880260010000026802700100000217                
291198512C42002 8512011300       50280010000018002900100000146030001000001280310010000012603200100000129                
291198512C42002 8512011300       50330010000011203400100000089035001000000720360010000006303700100000059                
291198512C42002 8512011300       3038001000000520390010000004204000100000031                                            
291198512A42002 8512011400260000N0933000W325530006   09002000038                    NDBC                085YYNNNNNNN    
291198512B42002 8512011400101+223    1011207071777              010046         2571          059      077004            
291198512C42002 8512011400       50030010000000000400100000000005001000000000060010000000000700100000000                
291198512C42002 8512011400       50080010000000000900100000000010001000000000110010000000001200100000000                
291198512C42002 8512011400       50130010000008701400100000304015001000004480160010000061501700100000819                
291198512C42002 8512011400       50180010000078601900100000571020001000003990210010000032302200100000272                
291198512C42002 8512011400       50230010000023202400100000214025001000001840260010000014902700100000151                
291198512C42002 8512011400       50280010000018002900100000153030001000000870310010000006003200100000062                
291198512C42002 8512011400       50330010000007403400100000092035001000000790360010000005903700100000055                
291198512C42002 8512011400       3038001000000520390010000004004000100000035                                            
291198512A42002 8512011500260000N0933000W325530006   09002000038                    NDBC                085YYNNNNNNN    
291198512B42002 8512011500101+225    1012605681910              010047         2574          059      062604            
291198512C42002 8512011500       50030010000000000400100000000005001000000000060010000000000700100000000                
291198512C42002 8512011500       50080010000000000900100000000010001000000000110010000000001200100000019                
291198512C42002 8512011500       50130010000006701400100000157015001000003590160010000069401700100000921                
291198512C42002 8512011500       50180010000078101900100000554020001000005290210010000043702200100000231                
291198512C42002 8512011500       50230010000014802400100000159025001000001530260010000013402700100000130                
291198512C42002 8512011500       50280010000012402900100000099030001000000870310010000009203200100000085                
291198512C42002 8512011500       50330010000006703400100000056035001000000470360010000004103700100000035                
291198512C42002 8512011500       3038001000000310390010000002704000100000028                                            
291198512A42002 8512011600260000N0933000W325530006   09002000038                    NDBC                085YYNNNNNNN    
291198512B42002 8512011600101+227    1014403042761              011048         2583          056      033704            
291198512C42002 8512011600       50030010000000000400100000000005001000000000060010000000000700100000000                
291198512C42002 8512011600       50080010000000000900100000000010001000000000110010000000001200100000026                
291198512C42002 8512011600       50130010000009701400100000345015001000005880160010000073501700100000826                
291198512C42002 8512011600       50180010000085601900100000809020001000005830210010000034202200100000223                
291198512C42002 8512011600       50230010000016402400100000167025001000001810260010000018102700100000154                
291198512C42002 8512011600       50280010000011002900100000086030001000000720310010000005303200100000056                
291198512C42002 8512011600       50330010000006903400100000063035001000000500360010000004603700100000037                
291198512C42002 8512011600       3038001000000250390010000001804000100000020                                            
291198512A42002 8512011700260000N0933000W325530006   09002000038                    NDBC                085YYNNNNNNN    
291198512B42002 8512011700101+225    1014502833141              011050         2601          059      028904            
291198512C42002 8512011700       50030010000000000400100000000005001000000000060010000000000700100000000                
291198512C42002 8512011700       50080010000000000900100000000010001000000000110010000000001200100000028                
291198512C42002 8512011700       50130010000007201400100000360015001000007770160010000102601700100001114                
291198512C42002 8512011700       50180010000090701900100000616020001000005010210010000037802200100000222                
291198512C42002 8512011700       50230010000013302400100000121025001000001340260010000012802700100000110                
291198512C42002 8512011700       50280010000010702900100000103030001000000800310010000006103200100000049                
291198512C42002 8512011700       50330010000003703400100000035035001000000380360010000003603700100000023                
291198512C42002 8512011700       3038001000000170390010000001404000100000010                                            
291198512A42002 8512011800260000N0933000W325530006   09002000038                    NDBC                085YYNNNNNNN    
291198512B42002 8512011800101+232    1013900902284              011053         2630          059      009604            
291198512C42002 8512011800       50030010000000000400100000000005001000000000060010000000000700100000000                
291198512C42002 8512011800       50080010000000000900100000000010001000000000110010000000501200100000053                
291198512C42002 8512011800       50130010000009501400100000338015001000008740160010000125101700100001343                
291198512C42002 8512011800       50180010000115901900100000708020001000003460210010000020602200100000166                
291198512C42002 8512011800       50230010000015402400100000141025001000001180260010000009802700100000082                
291198512C42002 8512011800       50280010000006402900100000047030001000000360310010000002803200100000028                
291198512C42002 8512011800       50330010000003003400100000025035001000000180360010000001303700100000011                
291198512C42002 8512011800       3038001000000090390010000000804000100000008                                            
291198512A42002 8512011900260000N0933000W325530006   09002000038                    NDBC                085YYNNNNNNN    
291198512B42002 8512011900101+234    1013501892389              010052         2676          063      019304            
291198512C42002 8512011900       50030010000000000400100000000005001000000000060010000000000700100000000                
291198512C42002 8512011900       50080010000000000900100000000010001000000000110010000000001200100000006                
291198512C42002 8512011900       50130010000011801400100000365015001000008420160010000130601700100001108                
291198512C42002 8512011900       50180010000061601900100000354020001000002880210010000027702200100000207                
291198512C42002 8512011900       50230010000014602400100000131025001000001200260010000011302700100000100                
291198512C42002 8512011900       50280010000007402900100000061030001000000630310010000006403200100000052                
291198512C42002 8512011900       50330010000002603400100000015035001000000170360010000001703700100000013                
291198512C42002 8512011900       3038001000000100390010000000804000100000005                                            
291198512A42002 8512012000260000N0933000W325530006   09002000038                    NDBC                085YYNNNNNNN    
291198512B42002 8512012000101+233    1013002292113              010053         2722          063      024104            
291198512C42002 8512012000       50030010000000000400100000000005001000000000060010000000000700100000000                
291198512C42002 8512012000       50080010000000000900100000000010001000000000110010000000001200100000029                
291198512C42002 8512012000       50130010000010101400100000350015001000008870160010000134901700100001229                
291198512C42002 8512012000       50180010000075501900100000421020001000002640210010000021302200100000213                
291198512C42002 8512012000       50230010000018502400100000144025001000001040260010000008302700100000085                
291198512C42002 8512012000       50280010000008202900100000062030001000000460310010000004003200100000031                
291198512C42002 8512012000       50330010000002203400100000020035001000000180360010000001403700100000008                
291198512C42002 8512012000       3038001000000070390010000000704000100000005                                            
291198512A42002 8512012100260000N0933000W325530006   09002000038                    NDBC                085YYNNNNNNN    
291198512B42002 8512012100101+230    1012902381847              011054         2742          067      024104            
291198512C42002 8512012100       50030010000000000400100000000005001000000000060010000000000700100000000                
291198512C42002 8512012100       50080010000000000900100000000010001000000000110010000000001200100000017                
291198512C42002 8512012100       50130010000016801400100000750015001000014030160010000134701700100000867                
291198512C42002 8512012100       50180010000055401900100000382020001000002750210010000020602200100000151                
291198512C42002 8512012100       50230010000014902400100000166025001000001300260010000009702700100000089                
291198512C42002 8512012100       50280010000006902900100000049030001000000400310010000003403200100000026                
291198512C42002 8512012100       50330010000002203400100000018035001000000130360010000001303700100000012                
291198512C42002 8512012100       3038001000000090390010000000504000100000004                                            
291198512A42002 8512012200260000N0933000W325530006   09002000038                    NDBC                085YYNNNNNNN    
291198512B42002 8512012200101+232    1012801651596              010053         2749          063      019304            
291198512C42002 8512012200       50030010000000000400100000000005001000000000060010000000000700100000000                
291198512C42002 8512012200       50080010000000000900100000000010001000000000110010000000001200100000025                
291198512C42002 8512012200       50130010000005601400100000341015001000008470160010000112401700100001078                
291198512C42002 8512012200       50180010000075601900100000424020001000003070210010000023902200100000134                
291198512C42002 8512012200       50230010000009902400100000132025001000001350260010000009702700100000063                
291198512C42002 8512012200       50280010000006402900100000066030001000000560310010000005203200100000042                
291198512C42002 8512012200       50330010000002403400100000014035001000000140360010000001603700100000011                
291198512C42002 8512012200       3038001000000070390010000000604000100000006                                            
291198512A42002 8512012300260000N0933000W325530006   09002000038                    NDBC                085YYNNNNNNN    
291198512B42002 8512012300101+232    1013200780347              011054         2741          063      009604            
291198512C42002 8512012300       50030010000000000400100000000005001000000000060010000000000700100000000                
291198512C42002 8512012300       50080010000000000900100000000010001000000000110010000000001200100000034                
291198512C42002 8512012300       50130010000013601400100000482015001000010450160010000130401700100001158                
291198512C42002 8512012300       50180010000081001900100000474020001000003000210010000020802200100000133                
291198512C42002 8512012300       50230010000008702400100000103025001000001430260010000012702700100000076                
291198512C42002 8512012300       50280010000004802900100000042030001000000400310010000003203200100000022                
291198512C42002 8512012300       50330010000001803400100000014035001000000120360010000001403700100000011                
291198512C42002 8512012300       3038001000000090390010000000904000100000006                                            
291198512A42002 8512020000260000N0933000W325530006   09002000038                    NDBC                085YYNNNNNNN    
291198512B42002 8512020000101+205    1014813230322              011042         2724          063      149204            
291198512C42002 8512020000       50030010000000000400100000000005001000000000060010000000000700100000000                
291198512C42002 8512020000       50080010000000000900100000000010001000000000110010000000001200100000016                
291198512C42002 8512020000       50130010000007901400100000250015001000007110160010000112001700100001045                
291198512C42002 8512020000       50180010000081101900100000586020001000003310210010000018402200100000144                
291198512C42002 8512020000       50230010000013102400100000102025001000000710260010000007102700100000076                
291198512C42002 8512020000       50280010000008702900100000111030001000001680310010000022703200100000273                
291198512C42002 8512020000       50330010000030603400100000287035001000002560360010000024403700100000191                
291198512C42002 8512020000       3038001000001440390010000012204000100000121                                            
291198512A42002 8512020100260000N0933000W325530006   09002000038                    NDBC                085YYNNNNNNN    
291198512B42002 8512020100101+204    1015512330374              014041         2684          043      139604            
291198512C42002 8512020100       50030010000000000400100000000005001000000000060010000000000700100000000                
291198512C42002 8512020100       50080010000000000900100000000010001000000000110010000000001200100000026                
291198512C42002 8512020100       50130010000008501400100000305015001000006560160010000084301700100000691                
291198512C42002 8512020100       50180010000049001900100000408020001000005010210010000065902200100000812                
291198512C42002 8512020100       50230010000089002400100000843025001000008300260010000077702700100000616                
291198512C42002 8512020100       50280010000045602900100000376030001000003420310010000030603200100000293                
291198512C42002 8512020100       50330010000026603400100000253035001000002220360010000017003700100000157                
291198512C42002 8512020100       3038001000001650390010000012304000100000097                                            
291198512A42002 8512020200260000N0933000W325530006   09002000038                    NDBC                085YYNNNNNNN    
291198512B42002 8512020200101+202    1016112390421              018044         2649          053      139604            
291198512C42002 8512020200       50030010000000000400100000000005001000000000060010000000000700100000000                
291198512C42002 8512020200       50080010000000000900100000000010001000000000110010000001901200100000087                
291198512C42002 8512020200       50130010000018901400100000333015001000007640160010000130501700100001831                
291198512C42002 8512020200       50180010000216201900100002180020001000019430210010000127702200100000797                
291198512C42002 8512020200       50230010000079102400100000836025001000007510260010000053702700100000374                
291198512C42002 8512020200       50280010000034802900100000354030001000003440310010000032803200100000307                
291198512C42002 8512020200       50330010000029403400100000327035001000003100360010000024103700100000186                
291198512C42002 8512020200       3038001000001770390010000017604000100000170                                            
291198512A42002 8512020300260000N0933000W325530006   09002000038                    NDBC                085YYNNNNNNN    
291198512B42002 8512020300101+199    1016812420413              019047         2623          059      139604            
291198512C42002 8512020300       50030010000000000400100000000005001000000000060010000000000700100000000                
291198512C42002 8512020300       50080010000000000900100000000010001000000040110010000019101200100000652                
291198512C42002 8512020300       50130010000123801400100001758015001000020350160010000213901700100002153                
291198512C42002 8512020300       50180010000193701900100001514020001000010140210010000061702200100000626                
291198512C42002 8512020300       50230010000079002400100000669025001000004420260010000035002700100000312                
291198512C42002 8512020300       50280010000032402900100000392030001000003820310010000032103200100000344                
291198512C42002 8512020300       50330010000034703400100000292035001000002970360010000029503700100000181                
291198512C42002 8512020300       3038001000001320390010000012604000100000117                                            
291198512A42002 8512020400260000N0933000W325530006   09002000038                    NDBC                085YYNNNNNNN    
291198512B42002 8512020400101+197    1017412060383              020049         2603          067      134804            
291198512C42002 8512020400       50030010000000000400100000000005001000000000060010000000000700100000000                
291198512C42002 8512020400       50080010000000000900100000000010001000001150110010000051601200100001371                
291198512C42002 8512020400       50130010000192001400100002256015001000025200160010000237101700100001993                
291198512C42002 8512020400       50180010000168901900100001381020001000012570210010000109102200100000782                
291198512C42002 8512020400       50230010000058702400100000470025001000004310260010000044602700100000431                
291198512C42002 8512020400       50280010000038902900100000368030001000003880310010000038603200100000329                
291198512C42002 8512020400       50330010000025803400100000228035001000002170360010000020503700100000173                
291198512C42002 8512020400       3038001000001760390010000016204000100000118                                            
291198512A42002 8512020500260000N0933000W325530006   09002000038                    NDBC                085YYNNNNNNN    
291198512B42002 8512020500101+193    1017812990296              022051         2588          077      149204            
291198512C42002 8512020500       50030010000000000400100000000005001000000000060010000000000700100000000                
291198512C42002 8512020500       50080010000000000900100000071010001000004760110010000144401200100002598                
291198512C42002 8512020500       50130010000328701400100003206015001000024540160010000181101700100001598                
291198512C42002 8512020500       50180010000146201900100001316020001000013830210010000140102200100001092                
291198512C42002 8512020500       50230010000075802400100000610025001000005430260010000052302700100000478                
291198512C42002 8512020500       50280010000043902900100000446030001000004570310010000044803200100000403                
291198512C42002 8512020500       50330010000034003400100000287035001000002880360010000029503700100000204                
291198512C42002 8512020500       3038001000001410390010000011604000100000116                                            
291198512A42002 8512020600260000N0933000W325530006   09002000038                    NDBC                085YYNNNNNNN    
291198512B42002 8512020600101+189    1018212930292              023053         2579          077      149204            
291198512C42002 8512020600       50030010000000000400100000000005001000000000060010000000000700100000000                
291198512C42002 8512020600       50080010000000000900100000000010001000005510110010000239601200100004017                
291198512C42002 8512020600       50130010000440001400100003446015001000020930160010000160301700100001907                
291198512C42002 8512020600       50180010000180801900100001311020001000012030210010000106102200100000753                
291198512C42002 8512020600       50230010000067302400100000664025001000005930260010000055202700100000510                
291198512C42002 8512020600       50280010000047902900100000433030001000003970310010000041903200100000439                
291198512C42002 8512020600       50330010000037903400100000259035001000002130360010000023803700100000207                
291198512C42002 8512020600       3038001000001700390010000011204000100000080                                            
291198512A42002 8512020700260000N0933000W325530006   09002000038                    NDBC                085YYNNNNNNN    
291198512B42002 8512020700101+186    1018512450280              024053         2571          077      139604            
291198512C42002 8512020700       50030010000000000400100000000005001000000000060010000000000700100000000                
291198512C42002 8512020700       50080010000000000900100000000010001000004550110010000146401200100003437                
291198512C42002 8512020700       50130010000478301400100003854015001000026590160010000205201700100001933                
291198512C42002 8512020700       50180010000226401900100002152020001000015900210010000116202200100000891                
291198512C42002 8512020700       50230010000061802400100000535025001000006440260010000059202700100000427                
291198512C42002 8512020700       50280010000036402900100000308030001000003040310010000033303200100000334                
291198512C42002 8512020700       50330010000033203400100000261035001000001950360010000020903700100000186                
291198512C42002 8512020700       3038001000001460390010000011004000100000095                                            
291198512A42002 8512020800260000N0933000W325530006   09002000038                    NDBC                085YYNNNNNNN    
291198512B42002 8512020800101+184    1018512420330              023053         2567          077      144404            
291198512C42002 8512020800       50030010000000000400100000000005001000000000060010000000000700100000000                
291198512C42002 8512020800       50080010000000000900100000000010001000001680110010000090101200100002742                
291198512C42002 8512020800       50130010000398401400100003302015001000022620160010000222401700100002660                
291198512C42002 8512020800       50180010000242001900100001886020001000015610210010000110402200100001019                
291198512C42002 8512020800       50230010000116202400100000945025001000006140260010000048702700100000503                
291198512C42002 8512020800       50280010000039702900100000247030001000002110310010000022703200100000253                
291198512C42002 8512020800       50330010000026903400100000243035001000001700360010000014903700100000145                
291198512C42002 8512020800       3038001000001270390010000008404000100000067                                            
291198512A42002 8512020900260000N0933000W325530006   09002000038                    NDBC                085YYNNNNNNN    
291198512B42002 8512020900101+181    1018712630272              023054         2562          077      144404            
291198512C42002 8512020900       50030010000000000400100000000005001000000000060010000000000700100000000                
291198512C42002 8512020900       50080010000000000900100000018010001000001640110010000116601200100003157                
291198512C42002 8512020900       50130010000371301400100003499015001000035830160010000300601700100002284                
291198512C42002 8512020900       50180010000189901900100001516020001000012620210010000103002200100000775                
291198512C42002 8512020900       50230010000074702400100000788025001000006040260010000043202700100000410                
291198512C42002 8512020900       50280010000035902900100000270030001000002400310010000025403200100000235                
291198512C42002 8512020900       50330010000022503400100000232035001000001740360010000014103700100000122                
291198512C42002 8512020900       3038001000001010390010000009204000100000077                                            
291198512A42002 8512021000260000N0933000W325530006   09002000038                    NDBC                085YYNNNNNNN    
291198512B42002 8512021000101+178    1018913660298              022054         2558          077      158804            
291198512C42002 8512021000       50030010000000000400100000000005001000000000060010000000000700100000000                
291198512C42002 8512021000       50080010000000000900100000000010001000002720110010000168301200100003095                
291198512C42002 8512021000       50130010000311701400100002697015001000026980160010000307501700100002629                
291198512C42002 8512021000       50180010000176901900100001552020001000012220210010000082602200100000931                
291198512C42002 8512021000       50230010000097402400100000692025001000005130260010000053902700100000518                
291198512C42002 8512021000       50280010000042502900100000341030001000002620310010000020203200100000209                
291198512C42002 8512021000       50330010000021303400100000166035001000001350360010000014103700100000109                
291198512C42002 8512021000       3038001000000650390010000004304000100000055                                            
291198512A42002 8512021100260000N0933000W325530006   09002000038                    NDBC                085YYNNNNNNN    
291198512B42002 8512021100101+173    1019014530227              023054         2552          077      168404            
291198512C42002 8512021100       50030010000000000400100000000005001000000000060010000000000700100000000                
291198512C42002 8512021100       50080010000000000900100000000010001000002420110010000146501200100003376                
291198512C42002 8512021100       50130010000405701400100003473015001000029750160010000261101700100002085                
291198512C42002 8512021100       50180010000208301900100002166020001000017330210010000129702200100000957                
291198512C42002 8512021100       50230010000072302400100000695025001000006320260010000050502700100000432                
291198512C42002 8512021100       50280010000039102900100000293030001000002110310010000019803200100000232                
291198512C42002 8512021100       50330010000024003400100000187035001000001570360010000016103700100000129                
291198512C42002 8512021100       3038001000001140390010000010604000100000076                                            
291198512A42002 8512021200260000N0933000W325530006   09002000038                    NDBC                085YYNNNNNNN    
291198512B42002 8512021200101+169    1020113660227              027059         2547          077      163604            
291198512C42002 8512021200       50030010000000000400100000000005001000000000060010000000000700100000000                
291198512C42002 8512021200       50080010000000000900100000000010001000004540110010000294901200100006716                
291198512C42002 8512021200       50130010000719001400100004884015001000036020160010000369001700100003433                
291198512C42002 8512021200       50180010000237401900100001504020001000012890210010000116802200100000843                
291198512C42002 8512021200       50230010000056002400100000497025001000005380260010000048902700100000363                
291198512C42002 8512021200       50280010000031102900100000309030001000002860310010000023903200100000207                
291198512C42002 8512021200       50330010000019503400100000170035001000001270360010000010803700100000091                
291198512C42002 8512021200       3038001000000920390010000008804000100000067                                            
291198512A42002 8512021300260000N0933000W325530006   09002000038                    NDBC                085YYNNNNNNN    
291198512B42002 8512021300101+167    1021312330214              024056         2543          071      149204            
291198512C42002 8512021300       50030010000000000400100000000005001000000000060010000000000700100000000                
291198512C42002 8512021300       50080010000000000900100000000010001000001480110010000156501200100003714                
291198512C42002 8512021300       50130010000464201400100004818015001000040050160010000272601700100002305                
291198512C42002 8512021300       50180010000231901900100002065020001000015080210010000114802200100000906                
291198512C42002 8512021300       50230010000083702400100000887025001000006500260010000047602700100000383                
291198512C42002 8512021300       50280010000026102900100000276030001000003400310010000028403200100000179                
291198512C42002 8512021300       50330010000013803400100000130035001000001190360010000009003700100000074                
291198512C42002 8512021300       3038001000000890390010000007004000100000045                                            
291198512A42002 8512021400260000N0933000W325530006   09002000038                    NDBC                085YYNNNNNNN    
291198512B42002 8512021400101+166    1022212630310              024057         2537          077      144404            
291198512C42002 8512021400       50030010000000000400100000000005001000000000060010000000000700100000000                
291198512C42002 8512021400       50080010000000000900100000052010001000003470110010000142101200100003908                
291198512C42002 8512021400       50130010000589201400100005310015001000039550160010000316901700100002463                
291198512C42002 8512021400       50180010000174501900100001062020001000008570210010000102902200100000918                
291198512C42002 8512021400       50230010000066002400100000571025001000004650260010000040602700100000434                
291198512C42002 8512021400       50280010000036802900100000284030001000002910310010000030203200100000267                
291198512C42002 8512021400       50330010000020903400100000153035001000001030360010000008703700100000087                
291198512C42002 8512021400       3038001000000750390010000005304000100000050                                            
291198512A42002 8512021500260000N0933000W325530006   09002000038                    NDBC                085YYNNNNNNN    
291198512B42002 8512021500101+163    1022712510171              025059         2532          077      144404            
291198512C42002 8512021500       50030010000000000400100000000005001000000000060010000000000700100000000                
291198512C42002 8512021500       50080010000000000900100000177010001000003750110010000286501200100006206                
291198512C42002 8512021500       50130010000641201400100004473015001000028320160010000246501700100002209                
291198512C42002 8512021500       50180010000160401900100001392020001000012720210010000103202200100001058                
291198512C42002 8512021500       50230010000110402400100000832025001000005640260010000045702700100000372                
291198512C42002 8512021500       50280010000029102900100000258030001000002680310010000021303200100000163                
291198512C42002 8512021500       50330010000016703400100000135035001000000930360010000007703700100000069                
291198512C42002 8512021500       3038001000000660390010000004804000100000041                                            
291198512A42002 8512021600260000N0933000W325530006   09002000038                    NDBC                085YYNNNNNNN    
291198512B42002 8512021600101+161    1023412780163              026061         2530          083      149204            
291198512C42002 8512021600       50030010000000000400100000000005001000000000060010000000000700100000000                
291198512C42002 8512021600       50080010000000000900100000000010001000006570110010000394001200100006958                
291198512C42002 8512021600       50130010000635501400100005246015001000046470160010000334701700100002327                
291198512C42002 8512021600       50180010000176901900100001272020001000010030210010000096602200100000890                
291198512C42002 8512021600       50230010000063502400100000469025001000004500260010000041802700100000391                
291198512C42002 8512021600       50280010000035002900100000260030001000001990310010000016503200100000148                
291198512C42002 8512021600       50330010000013203400100000112035001000000880360010000007303700100000059                
291198512C42002 8512021600       3038001000000470390010000003604000100000033                                            
291198512A42002 8512021700260000N0933000W325530006   09002000038                    NDBC                085YYNNNNNNN    
291198512B42002 8512021700101+159    1023312300161              024058         2528          077      144404            
291198512C42002 8512021700       50030010000000000400100000000005001000000000060010000000000700100000000                
291198512C42002 8512021700       50080010000000000900100000100010001000005170110010000251701200100005081                
291198512C42002 8512021700       50130010000552801400100003847015001000027890160010000271401700100002261                
291198512C42002 8512021700       50180010000175601900100001542020001000014700210010000122902200100000892                
291198512C42002 8512021700       50230010000081102400100000675025001000004310260010000043902700100000510                
291198512C42002 8512021700       50280010000041802900100000295030001000002470310010000020403200100000144                
291198512C42002 8512021700       50330010000009803400100000085035001000000760360010000006503700100000046                
291198512C42002 8512021700       3038001000000360390010000003604000100000029                                            
291198512A42002 8512021800260000N0933000W325530006   09002000038                    NDBC                085YYNNNNNNN    
291198512B42002 8512021800101+156    1023111610195              026061         2528          083      134804            
291198512C42002 8512021800       50030010000000000400100000000005001000000000060010000000000700100000000                
291198512C42002 8512021800       50080010000000000900100000138010001000008150110010000357001200100007829                
291198512C42002 8512021800       50130010000756401400100004562015001000033600160010000263701700100001925                
291198512C42002 8512021800       50180010000165901900100001394020001000011110210010000086702200100000769                
291198512C42002 8512021800       50230010000079102400100000706025001000005600260010000047202700100000401                
291198512C42002 8512021800       50280010000030602900100000200030001000001720310010000019403200100000197                
291198512C42002 8512021800       50330010000017403400100000150035001000001220360010000008603700100000052                
291198512C42002 8512021800       3038001000000370390010000003304000100000032                                            
291198512A42002 8512021900260000N0933000W325530006   09002000038                    NDBC                085YYNNNNNNN    
291198512B42002 8512021900101+154    1022811400236              026060         2531          077      129904            
291198512C42002 8512021900       50030010000000000400100000000005001000000000060010000000000700100000000                
291198512C42002 8512021900       50080010000000000900100000178010001000007200110010000297601200100006620                
291198512C42002 8512021900       50130010000672901400100004636015001000037800160010000297301700100002228                
291198512C42002 8512021900       50180010000182901900100001275020001000010070210010000102602200100000896                
291198512C42002 8512021900       50230010000061002400100000442025001000005030260010000064202700100000550                
291198512C42002 8512021900       50280010000030902900100000220030001000002240310010000018303200100000131                
291198512C42002 8512021900       50330010000009503400100000089035001000001000360010000009103700100000066                
291198512C42002 8512021900       3038001000000540390010000003204000100000020                                            
291198512A42002 8512022000260000N0933000W325530006   09002000038                    NDBC                085YYNNNNNNN    
291198512B42002 8512022000101+153    1022610320482              024057         2530          077      120304            
291198512C42002 8512022000       50030010000000000400100000000005001000000000060010000000000700100000000                
291198512C42002 8512022000       50080010000000000900100000082010001000006320110010000254201200100004675                
291198512C42002 8512022000       50130010000516701400100004174015001000028630160010000216901700100001800                
291198512C42002 8512022000       50180010000154801900100001464020001000012820210010000100402200100000889                
291198512C42002 8512022000       50230010000077502400100000590025001000005300260010000045102700100000303                
291198512C42002 8512022000       50280010000027202900100000295030001000002580310010000019503200100000171                
291198512C42002 8512022000       50330010000018003400100000171035001000001360360010000010703700100000080                
291198512C42002 8512022000       3038001000000750390010000007104000100000072                                            
291198512A42002 8512022100260000N0933000W325530006   09002000038                    NDBC                085YYNNNNNNN    
291198512B42002 8512022100101+158    1022310500475              024059         2526          077      134804            
291198512C42002 8512022100       50030010000000000400100000000005001000000000060010000000000700100000000                
291198512C42002 8512022100       50080010000000000900100000060010001000006960110010000301101200100005957                
291198512C42002 8512022100       50130010000615801400100003845015001000025370160010000254101700100002022                
291198512C42002 8512022100       50180010000131601900100001079020001000010720210010000098202200100000779                
291198512C42002 8512022100       50230010000059202400100000461025001000004160260010000039302700100000326                
291198512C42002 8512022100       50280010000027902900100000245030001000002150310010000020303200100000192                
291198512C42002 8512022100       50330010000017703400100000159035001000001350360010000011703700100000079                
291198512C42002 8512022100       3038001000000740390010000009704000100000095                                            
291198512A42002 8512022200260000N0933000W325530006   09002000038                    NDBC                085YYNNNNNNN    
291198512B42002 8512022200101+158    1022111160498              024058         2518          077      134804            
291198512C42002 8512022200       50030010000000000400100000000005001000000000060010000000000700100000000                
291198512C42002 8512022200       50080010000000000900100000000010001000009780110010000318201200100005392                
291198512C42002 8512022200       50130010000564801400100003933015001000028270160010000219001700100001517                
291198512C42002 8512022200       50180010000111401900100001025020001000011120210010000097002200100000852                
291198512C42002 8512022200       50230010000080202400100000700025001000005390260010000037302700100000345                
291198512C42002 8512022200       50280010000035002900100000292030001000002400310010000021303200100000194                
291198512C42002 8512022200       50330010000018703400100000184035001000001430360010000010103700100000091                
291198512C42002 8512022200       3038001000001040390010000010504000100000090                                            
291198512A42002 8512022300260000N0933000W325530006   09002000038                    NDBC                085YYNNNNNNN    
291198512B42002 8512022300101+157    1022410140499              024057         2508          077      120304            
291198512C42002 8512022300       50030010000000000400100000000005001000000000060010000000000700100000000                
291198512C42002 8512022300       50080010000000000900100000000010001000002560110010000217901200100005835                
291198512C42002 8512022300       50130010000670001400100004101015001000022370160010000200901700100001834                
291198512C42002 8512022300       50180010000144701900100001081020001000007880210010000069602200100000763                
291198512C42002 8512022300       50230010000082102400100000765025001000006280260010000054502700100000475                
291198512C42002 8512022300       50280010000033502900100000229030001000002380310010000023403200100000215                
291198512C42002 8512022300       50330010000022803400100000188035001000001250360010000011203700100000108                
291198512C42002 8512022300       3038001000001150390010000009604000100000076                                            
291198512A42002 8512030000260000N0933000W325530006   09002000038                    NDBC                085YYNNNNNNN    
291198512B42002 8512030000101+160    1022210740579              022056         2496          077      129904            
291198512C42002 8512030000       50030010000000000400100000000005001000000000060010000000000700100000000                
291198512C42002 8512030000       50080010000000000900100000000010001000002390110010000182101200100003919                
291198512C42002 8512030000       50130010000409201400100003118015001000027440160010000241101700100001806                
291198512C42002 8512030000       50180010000160501900100001553020001000014280210010000113002200100000667                
291198512C42002 8512030000       50230010000044402400100000375025001000003590260010000038502700100000340                
291198512C42002 8512030000       50280010000029602900100000223030001000001660310010000018203200100000202                
291198512C42002 8512030000       50330010000019203400100000179035001000001510360010000013903700100000136                
291198512C42002 8512030000       3038001000001180390010000008304000100000057                                            
291198512A42002 8512030100260000N0933000W325530006   09002000038                    NDBC                085YYNNNNNNN    
291198512B42002 8512030100101+165    1022511190587              022055         2486          083      134804            
291198512C42002 8512030100       50030010000000000400100000000005001000000000060010000000000700100000000                
291198512C42002 8512030100       50080010000000000900100000000010001000001870110010000190301200100003937                
291198512C42002 8512030100       50130010000386301400100003034015001000029850160010000298901700100002095                
291198512C42002 8512030100       50180010000123601900100001065020001000008770210010000068602200100000746                
291198512C42002 8512030100       50230010000071202400100000575025001000005360260010000049902700100000439                
291198512C42002 8512030100       50280010000042702900100000345030001000002490310010000023503200100000235                
291198512C42002 8512030100       50330010000024603400100000236035001000001950360010000018603700100000133                
291198512C42002 8512030100       3038001000000870390010000007804000100000071                                            
291198512A42002 8512030200260000N0933000W325530006   09002000038                    NDBC                085YYNNNNNNN    
291198512B42002 8512030200101+167    1023010800611              023055         2481          077      129904            
291198512C42002 8512030200       50030010000000000400100000000005001000000000060010000000000700100000000                
291198512C42002 8512030200       50080010000000000900100000000010001000004060110010000192401200100003473                
291198512C42002 8512030200       50130010000408401400100003744015001000028320160010000229401700100002163                
291198512C42002 8512030200       50180010000170601900100001149020001000009200210010000094802200100000984                
291198512C42002 8512030200       50230010000085202400100000637025001000004750260010000039102700100000357                
291198512C42002 8512030200       50280010000037002900100000347030001000002670310010000022803200100000225                
291198512C42002 8512030200       50330010000018203400100000140035001000001230360010000013203700100000122                
291198512C42002 8512030200       3038001000000900390010000008204000100000101                                            
291198512A42002 8512030300260000N0933000W325530006   09002000038                    NDBC                085YYNNNNNNN    
291198512B42002 8512030300101+170    1023310620662              022054         2480          071      134804            
291198512C42002 8512030300       50030010000000000400100000000005001000000000060010000000000700100000000                
291198512C42002 8512030300       50080010000000000900100000015010001000004830110010000191501200100002741                
291198512C42002 8512030300       50130010000300201400100003187015001000030630160010000292101700100002208                
291198512C42002 8512030300       50180010000162701900100001481020001000010250210010000067302200100000652                
291198512C42002 8512030300       50230010000059502400100000506025001000004380260010000039402700100000410                
291198512C42002 8512030300       50280010000041502900100000395030001000004060310010000033803200100000220                
291198512C42002 8512030300       50330010000016203400100000156035001000001610360010000017503700100000159                
291198512C42002 8512030300       3038001000001210390010000008104000100000070                                            
291198512A42002 8512030400260000N0933000W325530006   09002000038                    NDBC                085YYNNNNNNN    
291198512B42002 8512030400101+172    1023311250766              022055         2479          083      134804            
291198512C42002 8512030400       50030010000000000400100000000005001000000000060010000000000700100000000                
291198512C42002 8512030400       50080010000000000900100000000010001000005990110010000244001200100004438                
291198512C42002 8512030400       50130010000442501400100002660015001000015140160010000139801700100001390                
291198512C42002 8512030400       50180010000124501900100001082020001000010660210010000106702200100000954                
291198512C42002 8512030400       50230010000069702400100000463025001000005120260010000058102700100000435                
291198512C42002 8512030400       50280010000033102900100000326030001000002770310010000025803200100000303                
291198512C42002 8512030400       50330010000028603400100000216035001000001510360010000012803700100000112                
291198512C42002 8512030400       3038001000000890390010000006204000100000068                                            
291198512A42002 8512030500260000N0933000W325530006   09002000038                    NDBC                085YYNNNNNNN    
291198512B42002 8512030500101+171    1023612000710              023055         2477          077      149204            
291198512C42002 8512030500       50030010000000000400100000000005001000000000060010000000000700100000000                
291198512C42002 8512030500       50080010000000000900100000000010001000002280110010000207901200100004035                
291198512C42002 8512030500       50130010000449401400100003980015001000029830160010000217701700100001684                
291198512C42002 8512030500       50180010000147301900100001526020001000013920210010000093802200100000757                
291198512C42002 8512030500       50230010000071902400100000573025001000005690260010000050802700100000342                
291198512C42002 8512030500       50280010000029602900100000327030001000003280310010000028303200100000261                
291198512C42002 8512030500       50330010000023203400100000178035001000001470360010000014603700100000168                
291198512C42002 8512030500       3038001000001960390010000015904000100000119                                            
291198512A42002 8512030600260000N0933000W325530006   09002000038                    NDBC                085YYNNNNNNN    
291198512B42002 8512030600101+173    1023511100813              024058         2477          077      129904            
291198512C42002 8512030600       50030010000000000400100000000005001000000000060010000000000700100000000                
291198512C42002 8512030600       50080010000000000900100000003010001000002470110010000211001200100005874                
291198512C42002 8512030600       50130010000667601400100004483015001000031870160010000267701700100001972                
291198512C42002 8512030600       50180010000162301900100001481020001000010710210010000064902200100000501                
291198512C42002 8512030600       50230010000049402400100000431025001000003860260010000038902700100000339                
291198512C42002 8512030600       50280010000030302900100000273030001000002430310010000025903200100000276                
291198512C42002 8512030600       50330010000028703400100000283035001000002140360010000013903700100000093                
291198512C42002 8512030600       3038001000000850390010000008204000100000075                                            
291198512A42002 8512030700260000N0933000W325530006   09002000038                    NDBC                085YYNNNNNNN    
291198512B42002 8512030700101+174    1023410830799              023056         2477          077      129904            
291198512C42002 8512030700       50030010000000000400100000000005001000000000060010000000000700100000000                
291198512C42002 8512030700       50080010000000000900100000000010001000004020110010000243601200100004214                
291198512C42002 8512030700       50130010000432701400100004067015001000032130160010000217101700100001914                
291198512C42002 8512030700       50180010000161801900100001143020001000010210210010000106502200100000893                
291198512C42002 8512030700       50230010000062602400100000527025001000005210260010000052102700100000474                
291198512C42002 8512030700       50280010000037302900100000272030001000002240310010000021403200100000239                
291198512C42002 8512030700       50330010000024403400100000176035001000001300360010000014703700100000131                
291198512C42002 8512030700       3038001000001120390010000011504000100000108                                            
291198512A42002 8512030800260000N0933000W325530006   09002000038                    NDBC                085YYNNNNNNN    
291198512B42002 8512030800101+175    1022910500794              023057         2477          083      129904            
291198512C42002 8512030800       50030010000000000400100000000005001000000000060010000000000700100000000                
291198512C42002 8512030800       50080010000000000900100000188010001000002840110010000274301200100006483                
291198512C42002 8512030800       50130010000545201400100002468015001000014740160010000150801700100001595                
291198512C42002 8512030800       50180010000147601900100001321020001000009850210010000075702200100000969                
291198512C42002 8512030800       50230010000091802400100000550025001000004100260010000040302700100000351                
291198512C42002 8512030800       50280010000030602900100000279030001000002640310010000024403200100000226                
291198512C42002 8512030800       50330010000020203400100000163035001000001290360010000013903700100000124                
291198512C42002 8512030800       3038001000000740390010000005504000100000072                                            
291198512A42002 8512030900260000N0933000W325530006   09002000038                    NDBC                085YYNNNNNNN    
291198512B42002 8512030900101+176    1022509050828              021056         2477          077      101104            
291198512C42002 8512030900       50030010000000000400100000000005001000000000060010000000000700100000000                
291198512C42002 8512030900       50080010000000000900100000009010001000004790110010000221101200100004092                
291198512C42002 8512030900       50130010000436201400100003076015001000017320160010000119101700100001072                
291198512C42002 8512030900       50180010000112901900100001072020001000010010210010000090102200100000645                
291198512C42002 8512030900       50230010000047002400100000468025001000005030260010000043902700100000335                
291198512C42002 8512030900       50280010000025802900100000239030001000002740310010000023403200100000177                
291198512C42002 8512030900       50330010000018603400100000187035001000001450360010000013103700100000126                
291198512C42002 8512030900       3038001000001070390010000008404000100000070                                            
291198512A42002 8512031000260000N0933000W325530006   09002000038                    NDBC                085YYNNNNNNN    
291198512B42002 8512031000101+176    1022207820848              024061         2472          083      096304            
291198512C42002 8512031000       50030010000000000400100000000005001000000000060010000000000700100000000                
291198512C42002 8512031000       50080010000000000900100000097010001000008080110010000363701200100007713                
291198512C42002 8512031000       50130010000751101400100004286015001000023140160010000136201700100000915                
291198512C42002 8512031000       50180010000088501900100000863020001000007640210010000069702200100000720                
291198512C42002 8512031000       50230010000064102400100000478025001000003640260010000027802700100000250                
291198512C42002 8512031000       50280010000025402900100000215030001000002080310010000022603200100000209                
291198512C42002 8512031000       50330010000018803400100000168035001000001620360010000018603700100000168                
291198512C42002 8512031000       3038001000001140390010000005704000100000055                                            
291198512A42002 8512031100260000N0933000W325530006   09002000038                    NDBC                085YYNNNNNNN    
291198512B42002 8512031100101+176    1021707670842              023059         2465          083      091404            
291198512C42002 8512031100       50030010000000000400100000000005001000000000060010000000000700100000000                
291198512C42002 8512031100       50080010000000000900100000229010001000012190110010000325201200100005519                
291198512C42002 8512031100       50130010000523801400100003198015001000020730160010000183901700100001637                
291198512C42002 8512031100       50180010000129001900100000997020001000008670210010000074402200100000645                
291198512C42002 8512031100       50230010000061702400100000515025001000003700260010000033902700100000314                
291198512C42002 8512031100       50280010000024002900100000217030001000002210310010000018603200100000135                
291198512C42002 8512031100       50330010000009003400100000096035001000001450360010000016603700100000123                
291198512C42002 8512031100       3038001000000860390010000006504000100000056                                            
291198512A42002 8512031200260000N0933000W325530006   09002000038                    NDBC                085YYNNNNNNN    
291198512B42002 8512031200101+178    1021907790795              022061         2460          083      086604            
291198512C42002 8512031200       50030010000000000400100000000005001000000000060010000000000700100000000                
291198512C42002 8512031200       50080010000000000900100000195010001000016470110010000360101200100004754                
291198512C42002 8512031200       50130010000450601400100003534015001000024000160010000160201700100001274                
291198512C42002 8512031200       50180010000098901900100000900020001000008450210010000063602200100000498                
291198512C42002 8512031200       50230010000045002400100000431025001000003800260010000029902700100000205                
291198512C42002 8512031200       50280010000013402900100000138030001000001890310010000018703200100000139                
291198512C42002 8512031200       50330010000011903400100000112035001000001000360010000009503700100000078                
291198512C42002 8512031200       3038001000000800390010000008704000100000074                                            
291198512A42002 8512031300260000N0933000W325530006   09002000038                    NDBC                085YYNNNNNNN    
291198512B42002 8512031300101+180    1022307190862              021059         2460          077      086604            
291198512C42002 8512031300       50030010000000000400100000000005001000000000060010000000000700100000000                
291198512C42002 8512031300       50080010000000000900100000443010001000013550110010000239401200100003157                
291198512C42002 8512031300       50130010000336601400100003348015001000027390160010000158401700100001155                
291198512C42002 8512031300       50180010000131001900100001098020001000007500210010000059602200100000497                
291198512C42002 8512031300       50230010000038902400100000296025001000002660260010000030002700100000288                
291198512C42002 8512031300       50280010000026302900100000232030001000001770310010000013203200100000130                
291198512C42002 8512031300       50330010000017203400100000166035001000000980360010000006003700100000052                
291198512C42002 8512031300       3038001000000520390010000005404000100000060                                            
291198512A42002 8512031400260000N0933000W325530006   09002000038                    NDBC                085YYNNNNNNN    
291198512B42002 8512031400101+182    1022507100976              019059         2463          083      086604            
291198512C42002 8512031400       50030010000000000400100000000005001000000000060010000000000700100000000                
291198512C42002 8512031400       50080010000004400900100000312010001000013990110010000287801200100003074                
291198512C42002 8512031400       50130010000288001400100002692015001000019030160010000126301700100000961                
291198512C42002 8512031400       50180010000073401900100000724020001000007790210010000061402200100000428                
291198512C42002 8512031400       50230010000034002400100000300025001000003160260010000029802700100000275                
291198512C42002 8512031400       50280010000026802900100000207030001000001420310010000011503200100000126                
291198512C42002 8512031400       50330010000012103400100000099035001000000920360010000008603700100000063                
291198512C42002 8512031400       3038001000000480390010000005304000100000058                                            
291198512A42002 8512031500260000N0933000W325530006   09002000038                    NDBC                085YYNNNNNNN    
291198512B42002 8512031500101+182    1022707790916              022062         2469          077      091404            
291198512C42002 8512031500       50030010000000000400100000000005001000000000060010000000000700100000000                
291198512C42002 8512031500       50080010000000000900100000315010001000013050110010000265801200100004360                
291198512C42002 8512031500       50130010000552201400100004659015001000028860160010000160101700100000973                
291198512C42002 8512031500       50180010000079301900100000710020001000006380210010000053802200100000470                
291198512C42002 8512031500       50230010000044402400100000385025001000003140260010000025002700100000197                
291198512C42002 8512031500       50280010000015702900100000142030001000001500310010000013703200100000115                
291198512C42002 8512031500       50330010000011903400100000125035001000001030360010000010603700100000102                
291198512C42002 8512031500       3038001000000670390010000004304000100000041                                            
291198512A42002 8512031600260000N0933000W325530006   09002000038                    NDBC                085YYNNNNNNN    
291198512B42002 8512031600101+182    1022707700759              021063         2479          083      091404            
291198512C42002 8512031600       50030010000000000400100000000005001000000000060010000000000700100000000                
291198512C42002 8512031600       50080010000005100900100000433010001000016320110010000345701200100004602                
291198512C42002 8512031600       50130010000427101400100003072015001000019780160010000141301700100001126                
291198512C42002 8512031600       50180010000089801900100000701020001000005680210010000043602200100000331                
291198512C42002 8512031600       50230010000033402400100000323025001000002590260010000021802700100000216                
291198512C42002 8512031600       50280010000020302900100000155030001000001330310010000014403200100000148                
291198512C42002 8512031600       50330010000010803400100000076035001000000740360010000007003700100000062                
291198512C42002 8512031600       3038001000000590390010000004704000100000045                                            
291198512A42002 8512031700260000N0933000W325530006   09002000038                    NDBC                085YYNNNNNNN    
291198512B42002 8512031700101+184    1022507970707              019061         2489          083      101104            
291198512C42002 8512031700       50030010000000000400100000000005001000000000060010000000000700100000000                
291198512C42002 8512031700       50080010000000000900100000523010001000015740110010000285301200100003169                
291198512C42002 8512031700       50130010000274101400100002477015001000020060160010000139701700100000874                
291198512C42002 8512031700       50180010000066101900100000718020001000007030210010000055002200100000486                
291198512C42002 8512031700       50230010000052402400100000450025001000003040260010000024402700100000223                
291198512C42002 8512031700       50280010000016702900100000155030001000001580310010000011103200100000079                
291198512C42002 8512031700       50330010000006103400100000049035001000000510360010000006103700100000054                
291198512C42002 8512031700       3038001000000480390010000004304000100000036                                            
291198512A42002 8512031800260000N0933000W325530006   09002000038                    NDBC                085YYNNNNNNN    
291198512B42002 8512031800101+185    1021808150781              020060         2497          077      096304            
291198512C42002 8512031800       50030010000000000400100000000005001000000000060010000000000700100000000                
291198512C42002 8512031800       50080010000000000900100000388010001000014220110010000253601200100002967                
291198512C42002 8512031800       50130010000314401400100002899015001000021560160010000164701700100001257                
291198512C42002 8512031800       50180010000095201900100000842020001000007030210010000051802200100000387                
291198512C42002 8512031800       50230010000040402400100000428025001000003040260010000024402700100000261                
291198512C42002 8512031800       50280010000020902900100000181030001000001960310010000013603200100000081                
291198512C42002 8512031800       50330010000008103400100000081035001000000750360010000007803700100000073                
291198512C42002 8512031800       3038001000000570390010000003704000100000035                                            
291198512A42002 8512031900260000N0933000W325530006   09002000038                    NDBC                085YYNNNNNNN    
291198512B42002 8512031900101+187    1020608210836              021062         2505          077      101104            
291198512C42002 8512031900       50030010000000000400100000000005001000000000060010000000000700100000000                
291198512C42002 8512031900       50080010000007000900100000430010001000012540110010000290701200100004064                
291198512C42002 8512031900       50130010000411801400100003238015001000021200160010000159301700100001216                
291198512C42002 8512031900       50180010000083401900100000776020001000007790210010000060902200100000481                
291198512C42002 8512031900       50230010000044502400100000342025001000002060260010000014302700100000170                
291198512C42002 8512031900       50280010000020602900100000191030001000001690310010000014903200100000128                
291198512C42002 8512031900       50330010000008903400100000061035001000000620360010000006003700100000053                
291198512C42002 8512031900       3038001000000470390010000003604000100000038                                            
291198512A42002 8512032000260000N0933000W325530006   09002000038                    NDBC                085YYNNNNNNN    
291198512B42002 8512032000101+187    1020208630859              021061         2518          077      105904            
291198512C42002 8512032000       50030010000000000400100000000005001000000000060010000000000700100000000                
291198512C42002 8512032000       50080010000000000900100000335010001000012110110010000291301200100004414                
291198512C42002 8512032000       50130010000443001400100003396015001000026300160010000186201700100001098                
291198512C42002 8512032000       50180010000090201900100000787020001000006270210010000053702200100000398                
291198512C42002 8512032000       50230010000027702400100000306025001000003670260010000033702700100000289                
291198512C42002 8512032000       50280010000022002900100000133030001000001070310010000012203200100000129                
291198512C42002 8512032000       50330010000011303400100000099035001000000920360010000008303700100000065                
291198512C42002 8512032000       3038001000000610390010000005704000100000045                                            
291198512A42002 8512032100260000N0933000W325530006   09002000038                    NDBC                085YYNNNNNNN    
291198512B42002 8512032100101+189    1019909020804              020060         2526          077      105904            
291198512C42002 8512032100       50030010000000000400100000000005001000000000060010000000000700100000000                
291198512C42002 8512032100       50080010000000000900100000556010001000012010110010000222401200100003361                
291198512C42002 8512032100       50130010000343301400100003281015001000027080160010000170001700100001129                
291198512C42002 8512032100       50180010000097401900100000926020001000006530210010000045202200100000486                
291198512C42002 8512032100       50230010000042902400100000339025001000003140260010000030702700100000257                
291198512C42002 8512032100       50280010000018502900100000135030001000001170310010000012803200100000124                
291198512C42002 8512032100       50330010000010403400100000105035001000001050360010000009003700100000068                
291198512C42002 8512032100       3038001000000640390010000005504000100000047                                            
291198512A42002 8512032200260000N0933000W325530006   09002000038                    NDBC                085YYNNNNNNN    
291198512B42002 8512032200101+190    1019708450817              021060         2519          083      101104            
291198512C42002 8512032200       50030010000000000400100000000005001000000000060010000000000700100000000                
291198512C42002 8512032200       50080010000002400900100000474010001000012020110010000299701200100004859                
291198512C42002 8512032200       50130010000418401400100002504015001000017930160010000146801700100001126                
291198512C42002 8512032200       50180010000086401900100000739020001000006670210010000058702200100000516                
291198512C42002 8512032200       50230010000041002400100000339025001000003020260010000025502700100000244                
291198512C42002 8512032200       50280010000025102900100000225030001000001750310010000013703200100000149                
291198512C42002 8512032200       50330010000016003400100000145035001000001120360010000008003700100000069                
291198512C42002 8512032200       3038001000000760390010000006704000100000059                                            
291198512A42002 8512032300260000N0933000W325530006   09002000038                    NDBC                085YYNNNNNNN    
291198512B42002 8512032300101+190    1020008150869              022060         2509          083      101104            
291198512C42002 8512032300       50030010000000000400100000000005001000000000060010000000000700100000000                
291198512C42002 8512032300       50080010000000000900100000286010001000013410110010000342201200100004939                
291198512C42002 8512032300       50130010000473701400100003475015001000021520160010000178401700100001599                
291198512C42002 8512032300       50180010000098401900100000742020001000007670210010000056102200100000397                
291198512C42002 8512032300       50230010000042102400100000468025001000004500260010000035002700100000283                
291198512C42002 8512032300       50280010000027502900100000209030001000001480310010000013303200100000115                
291198512C42002 8512032300       50330010000011703400100000135035001000001300360010000011703700100000093                
291198512C42002 8512032300       3038001000000780390010000006504000100000050                                            
291198512A42002 8512040000260000N0933000W325530006   09002000038                    NDBC                085YYNNNNNNN    
291198512B42002 8512040000101+191    1020409320851              019057         2500          083      105904            
291198512C42002 8512040000       50030010000000000400100000000005001000000000060010000000000700100000000                
291198512C42002 8512040000       50080010000000000900100000079010001000007900110010000221201200100002630                
291198512C42002 8512040000       50130010000240601400100002628015001000023020160010000144501700100001022                
291198512C42002 8512040000       50180010000093601900100000815020001000006610210010000056702200100000511                
291198512C42002 8512040000       50230010000042102400100000364025001000003660260010000032802700100000253                
291198512C42002 8512040000       50280010000021002900100000188030001000001650310010000014103200100000145                
291198512C42002 8512040000       50330010000013703400100000109035001000000970360010000008803700100000079                
291198512C42002 8512040000       3038001000000810390010000006704000100000051                                            
291198512A42002 8512040100260000N0933000W325530006   09002000038                    NDBC                085YYNNNNNNN    
291198512B42002 8512040100101+192    1020509960905              020055         2493          077      115504            
291198512C42002 8512040100       50030010000000000400100000000005001000000000060010000000000700100000000                
291198512C42002 8512040100       50080010000000000900100000045010001000009700110010000198601200100002454                
291198512C42002 8512040100       50130010000268001400100002306015001000017860160010000171201700100001543                
291198512C42002 8512040100       50180010000122701900100001013020001000008440210010000074702200100000639                
291198512C42002 8512040100       50230010000047602400100000406025001000003840260010000035302700100000328                
291198512C42002 8512040100       50280010000029702900100000264030001000002340310010000019603200100000160                
291198512C42002 8512040100       50330010000015003400100000174035001000001490360010000010303700100000078                
291198512C42002 8512040100       3038001000000690390010000006804000100000060                                            
291198512A42002 8512040200260000N0933000W325530006   09002000038                    NDBC                085YYNNNNNNN    
291198512B42002 8512040200101+193    1021009900958              019055         2485          083      120304            
291198512C42002 8512040200       50030010000000000400100000000005001000000000060010000000000700100000000                
291198512C42002 8512040200       50080010000000000900100000000010001000005410110010000195801200100002691                
291198512C42002 8512040200       50130010000244001400100001963015001000016270160010000148501700100001382                
291198512C42002 8512040200       50180010000116801900100000751020001000005860210010000074202200100000761                
291198512C42002 8512040200       50230010000054702400100000372025001000003400260010000033902700100000281                
291198512C42002 8512040200       50280010000020702900100000179030001000001860310010000019503200100000202                
291198512C42002 8512040200       50330010000018703400100000137035001000001150360010000012403700100000109                
291198512C42002 8512040200       3038001000000970390010000007004000100000054                                            
291198512A42002 8512040300260000N0933000W325530006   09002000038                    NDBC                085YYNNNNNNN    
291198512B42002 8512040300101+195    1020811581018              019054         2480          083      139604            
291198512C42002 8512040300       50030010000000000400100000000005001000000000060010000000000700100000000                
291198512C42002 8512040300       50080010000000000900100000028010001000006400110010000160201200100002306                
291198512C42002 8512040300       50130010000227501400100001763015001000014650160010000152701700100001539                
291198512C42002 8512040300       50180010000115601900100000824020001000007660210010000071302200100000756                
291198512C42002 8512040300       50230010000071702400100000500025001000004140260010000045102700100000409                
291198512C42002 8512040300       50280010000030102900100000215030001000001850310010000019103200100000186                
291198512C42002 8512040300       50330010000015303400100000123035001000000930360010000007103700100000070                
291198512C42002 8512040300       3038001000000780390010000006804000100000060                                            
291198512A42002 8512040400260000N0933000W325530006   09002000038                    NDBC                085YYNNNNNNN    
291198512B42002 8512040400101+196    1020512571020              017050         2479          059      144404            
291198512C42002 8512040400       50030010000000000400100000000005001000000000060010000000000700100000000                
291198512C42002 8512040400       50080010000000000900100000032010001000003500110010000065801200100000768                
291198512C42002 8512040400       50130010000110401400100001367015001000015060160010000163601700100001669                
291198512C42002 8512040400       50180010000165101900100001230020001000009760210010000107302200100000863                
291198512C42002 8512040400       50230010000055302400100000468025001000004210260010000032702700100000295                
291198512C42002 8512040400       50280010000029702900100000229030001000001880310010000021203200100000215                
291198512C42002 8512040400       50330010000017903400100000153035001000001340360010000010903700100000081                
291198512C42002 8512040400       3038001000000780390010000007804000100000072                                            
291198512A42002 8512040500260000N0933000W325530006   09002000038                    NDBC                085YYNNNNNNN    
291198512B42002 8512040500101+197    1020411941042              018050         2480          063      144404            
291198512C42002 8512040500       50030010000000000400100000000005001000000000060010000000000700100000000                
291198512C42002 8512040500       50080010000000000900100000000010001000002640110010000080201200100001360                
291198512C42002 8512040500       50130010000172501400100001704015001000016760160010000174701700100001562                
291198512C42002 8512040500       50180010000132601900100000981020001000008870210010000110002200100000972                
291198512C42002 8512040500       50230010000064902400100000483025001000003780260010000034602700100000392                
291198512C42002 8512040500       50280010000035602900100000318030001000003030310010000022403200100000208                
291198512C42002 8512040500       50330010000020803400100000176035001000001540360010000012703700100000104                
291198512C42002 8512040500       3038001000001050390010000008904000100000070                                            
291198512A42002 8512040600260000N0933000W325530006   09002000038                    NDBC                085YYNNNNNNN    
291198512B42002 8512040600101+198    1020809991036              018051         2481          063      120304            
291198512C42002 8512040600       50030010000000000400100000000005001000000000060010000000000700100000000                
291198512C42002 8512040600       50080010000000000900100000000010001000001050110010000062701200100001043                
291198512C42002 8512040600       50130010000143201400100001885015001000021250160010000232601700100001988                
291198512C42002 8512040600       50180010000143701900100001228020001000011020210010000083102200100000580                
291198512C42002 8512040600       50230010000051802400100000500025001000005290260010000052202700100000376                
291198512C42002 8512040600       50280010000029602900100000322030001000003060310010000020203200100000133                
291198512C42002 8512040600       50330010000012403400100000129035001000001420360010000014703700100000119                
291198512C42002 8512040600       3038001000001070390010000009704000100000073                                            
291198512A42002 8512040700260000N0933000W325530006   09002000038                    NDBC                085YYNNNNNNN    
291198512B42002 8512040700101+198    1021009261086              019049         2482          059      110704            
291198512C42002 8512040700       50030010000000000400100000000005001000000000060010000000000700100000000                
291198512C42002 8512040700       50080010000000000900100000000010001000000670110010000037401200100000703                
291198512C42002 8512040700       50130010000096001400100001275015001000015120160010000220701700100002827                
291198512C42002 8512040700       50180010000233501900100001614020001000012700210010000097702200100000923                
291198512C42002 8512040700       50230010000086902400100000582025001000003770260010000033302700100000318                
291198512C42002 8512040700       50280010000029302900100000288030001000003020310010000026503200100000217                
291198512C42002 8512040700       50330010000018103400100000144035001000001440360010000015203700100000111                
291198512C42002 8512040700       3038001000000870390010000008304000100000069                                            
291198512A42002 8512040800260000N0933000W325530006   09002000038                    NDBC                085YYNNNNNNN    
291198512B42002 8512040800101+197    1019910351105              018050         2484          067      115504            
291198512C42002 8512040800       50030010000000000400100000000005001000000000060010000000000700100000000                
291198512C42002 8512040800       50080010000000000900100000023010001000000260110010000032901200100000888                
291198512C42002 8512040800       50130010000130401400100001772015001000020520160010000183401700100001482                
291198512C42002 8512040800       50180010000132501900100001259020001000011780210010000105402200100000851                
291198512C42002 8512040800       50230010000057502400100000435025001000003950260010000032202700100000295                
291198512C42002 8512040800       50280010000028502900100000221030001000001710310010000015403200100000158                
291198512C42002 8512040800       50330010000017603400100000167035001000001510360010000014703700100000107                
291198512C42002 8512040800       3038001000000800390010000007704000100000077                                            
291198512A42002 8512040900260000N0933000W325530006   09002000038                    NDBC                085YYNNNNNNN    
291198512B42002 8512040900101+197    1019610291074              017050         2484          063      115504            
291198512C42002 8512040900       50030010000000000400100000000005001000000000060010000000000700100000000                
291198512C42002 8512040900       50080010000000000900100000000010001000000550110010000024001200100000719                
291198512C42002 8512040900       50130010000120301400100001310015001000019160160010000222901700100001551                
291198512C42002 8512040900       50180010000108501900100000963020001000007430210010000056802200100000512                
291198512C42002 8512040900       50230010000051702400100000504025001000004290260010000036702700100000299                
291198512C42002 8512040900       50280010000025202900100000225030001000001930310010000020603200100000217                
291198512C42002 8512040900       50330010000019303400100000159035001000001210360010000011203700100000103                
291198512C42002 8512040900       3038001000000810390010000005904000100000051                                            
291198512A42002 8512041000260000N0933000W325530006   09002000038                    NDBC                085YYNNNNNNN    
291198512B42002 8512041000101+198    1019210531130              017050         2482          063      120304            
291198512C42002 8512041000       50030010000000000400100000000005001000000000060010000000000700100000000                
291198512C42002 8512041000       50080010000000000900100000000010001000000610110010000025101200100000501                
291198512C42002 8512041000       50130010000092601400100001267015001000016600160010000218801700100002166                
291198512C42002 8512041000       50180010000159601900100001103020001000009450210010000084302200100000646                
