291200307APTGC1 0307010000343436N1203854W     0014                                  NDBC                020YNNNNNNNYNN  
291200307BPTGC1 0307010000094+144    1014509943590                                                    114305            
291200307JPTGC1 03070100002009    119355510000358101000098000097358096358097359093                                      
291200307APTGC1 0307010100343436N1203854W     0014                                  NDBC                020YNNNNNNNYNN  
291200307BPTGC1 0307010100094+143    1014309583550                                                    106005            
291200307JPTGC1 03070101002008    129008200100359100359099359100002101359100000101                                      
291200307APTGC1 0307010200343436N1203854W     0014                                  NDBC                020YNNNNNNNYNN  
291200307BPTGC1 0307010200094+145    1014309993550                                                    110205            
291200307JPTGC1 03070102002009    126001190200356103001101003099001098001100000098                                      
291200307APTGC1 0307010300343436N1203854W     0014                                  NDBC                020YNNNNNNNYNN  
291200307BPTGC1 0307010300094+142    1014108600030                                                    097305            
291200307JPTGC1 03070103002008    118000260300001089359092359095000098359096002100                                      
291200307APTGC1 0307010400343436N1203854W     0014                                  NDBC                020YNNNNNNNYNN  
291200307BPTGC1 0307010400094+139    1014009520030                                                    106605            
291200307JPTGC1 03070104002008    114003410400006093004096003094002094001091001090                                      
291200307APTGC1 0307010500343436N1203854W     0014                                  NDBC                020YNNNNNNNYNN  
291200307BPTGC1 0307010500094+138    1014209420030                                                    106005            
291200307JPTGC1 03070105002009    126007230500004095006097006097005099004095005095                                      
291200307APTGC1 0307010600343436N1203854W     0014                                  NDBC                020YNNNNNNNYNN  
291200307BPTGC1 0307010600094+137    1014110140050                                                    114805            
291200307JPTGC1 03070106002009    123004170600005097004097004098005096004097003097                                      
291200307APTGC1 0307010700343436N1203854W     0014                                  NDBC                020YNNNNNNNYNN  
291200307BPTGC1 0307010700094+134    1014208850050                                                    104505            
291200307JPTGC1 03070107002009    114007210700005093003093004094005095005095005097                                      
291200307APTGC1 0307010800343436N1203854W     0014                                  NDBC                020YNNNNNNNYNN  
291200307BPTGC1 0307010800094+133    1014011020030                                                    123605            
291200307JPTGC1 03070108002009    124001580800001101001097002096004098004094004095                                      
291200307APTGC1 0307010900343436N1203854W     0014                                  NDBC                020YNNNNNNNYNN  
291200307BPTGC1 0307010900094+130    1013811273580                                                    126605            
291200307JPTGC1 03070109002011    138357090900000111001111003108359117351124357117                                      
291200307APTGC1 0307011000343436N1203854W     0014                                  NDBC                020YNNNNNNNYNN  
291200307BPTGC1 0307011000094+131    1013510350040                                                    115305            
291200307JPTGC1 03070110002011    140004181000003105003103004104004108004114003108                                      
291200307APTGC1 0307011100343436N1203854W     0014                                  NDBC                020YNNNNNNNYNN  
291200307BPTGC1 0307011100094+129    1013808750040                                                    104005            
291200307JPTGC1 03070111002011    128006061100004095002096003100001099004104005102                                      
291200307APTGC1 0307011200343436N1203854W     0014                                  NDBC                020YNNNNNNNYNN  
291200307BPTGC1 0307011200094+127    1013610040050                                                    114805            
291200307JPTGC1 03070112002010    127005401200003097004097005095002094003094004095                                      
291200307APTGC1 0307011300343436N1203854W     0014                                  NDBC                020YNNNNNNNYNN  
291200307BPTGC1 0307011300094+118    1014208960010                                                    100405            
291200307JPTGC1 03070113002009    121359161300359097356102359098359097000100002099                                      
291200307APTGC1 0307011400343436N1203854W     0014                                  NDBC                020YNNNNNNNYNN  
291200307BPTGC1 0307011400094+118    1014509373520                                                    104505            
291200307JPTGC1 03070114002008    113339431400345097349099341102352096000095000093                                      
291200307APTGC1 0307011500343436N1203854W     0014                                  NDBC                020YNNNNNNNYNN  
291200307BPTGC1 0307011500094+114    1014708913570                                                    096305            
291200307JPTGC1 03070115002007    103351021500359088001085000085000087359087356094                                      
291200307APTGC1 0307011600343436N1203854W     0014                                  NDBC                020YNNNNNNNYNN  
291200307BPTGC1 0307011600094+114    1014909883510                                                    104005            
291200307JPTGC1 03070116002008    107000011600359096001089359091000092359090001088                                      
291200307APTGC1 0307011700343436N1203854W     0014                                  NDBC                020YNNNNNNNYNN  
291200307BPTGC1 0307011700094+114    1015009323440                                                    101405            
291200307JPTGC1 03070117002006    111343231700349092349094348097344103346100355098                                      
291200307APTGC1 0307011800343436N1203854W     0014                                  NDBC                020YNNNNNNNYNN  
291200307BPTGC1 0307011800094+115    1015109633460                                                    103005            
291200307JPTGC1 03070118002005    106346131800347097347095345093346096346096349091                                      
291200307APTGC1 0307011900343436N1203854W     0014                                  NDBC                020YNNNNNNNYNN  
291200307BPTGC1 0307011900094+118    1015409473470                                                    104005            
291200307JPTGC1 03070119002006    117344291900346100346101348105345106349103346100                                      
291200307APTGC1 0307012000343436N1203854W     0014                                  NDBC                020YNNNNNNNYNN  
291200307BPTGC1 0307012000094+123    1015009633500                                                    104005            
291200307JPTGC1 03070120002005    110351082000353098348100345100345096343099349096                                      
291200307APTGC1 0307012100343436N1203854W     0014                                  NDBC                020YNNNNNNNYNN  
291200307BPTGC1 0307012100094+126    1014909013560                                                    096805            
291200307JPTGC1 03070121002005    106352232100000091002096358096347095355091353093                                      
291200307APTGC1 0307012200343436N1203854W     0014                                  NDBC                020YNNNNNNNYNN  
291200307BPTGC1 0307012200094+137    1014608243560                                                    095205            
291200307JPTGC1 03070122002007    100001112200000082359083358084000082000083001088                                      
291200307APTGC1 0307012300343436N1203854W     0014                                  NDBC                020YNNNNNNNYNN  
291200307BPTGC1 0307012300094+139    1014009060000                                                    103505            
291200307JPTGC1 03070123002007    105000232300000091000091357089001089001086359085                                      
291200307APTGC1 0307020000343436N1203854W     0014                                  NDBC                020YNNNNNNNYNN  
291200307BPTGC1 0307020000094+140    1013309210020                                                    104005            
291200307JPTGC1 03070200002005    104000590000000091000089001090003090001090002089                                      
291200307APTGC1 0307020100343436N1203854W     0014                                  NDBC                020YNNNNNNNYNN  
291200307BPTGC1 0307020100094+142    1012708960020                                                    095805            
291200307JPTGC1 03070201002006    110000350100359092359093000092000095000094000091                                      
291200307APTGC1 0307020200343436N1203854W     0014                                  NDBC                020YNNNNNNNYNN  
291200307BPTGC1 0307020200094+144    1012708650010                                                    097305            
291200307JPTGC1 03070202002007    115359270200000090359090358091000092359089002094                                      
291200307APTGC1 0307020300343436N1203854W     0014                                  NDBC                020YNNNNNNNYNN  
291200307BPTGC1 0307020300094+144    1012608440020                                                    096805            
291200307JPTGC1 03070203002008    101008000300002084002082001079359082359083358085                                      
291200307APTGC1 0307020400343436N1203854W     0014                                  NDBC                020YNNNNNNNYNN  
291200307BPTGC1 0307020400094+142    1012607880060                                                    093705            
291200307JPTGC1 03070204002008    108001250400000079358090000089001089003086002085                                      
291200307APTGC1 0307020500343436N1203854W     0014                                  NDBC                020YNNNNNNNYNN  
291200307BPTGC1 0307020500094+140    1012808600030                                                    097305            
291200307JPTGC1 03070205002007    107004260500002082003083001082003085000084359084                                      
291200307APTGC1 0307020600343436N1203854W     0014                                  NDBC                020YNNNNNNNYNN  
291200307BPTGC1 0307020600094+138    1012709990060                                                    116905            
291200307JPTGC1 03070206002010    119004070600005098005091009092004090000087005092                                      
291200307APTGC1 0307020700343436N1203854W     0014                                  NDBC                020YNNNNNNNYNN  
291200307BPTGC1 0307020700094+133    1012808390040                                                    097805            
291200307JPTGC1 03070207002009    118007040700001084000089002091002094004098007097                                      
291200307APTGC1 0307020800343436N1203854W     0014                                  NDBC                020YNNNNNNNYNN  
291200307BPTGC1 0307020800094+128    1012608190030                                                    092705            
291200307JPTGC1 03070208002008    102000130800003080002080002078002080000086001084                                      
291200307APTGC1 0307020900343436N1203854W     0014                                  NDBC                020YNNNNNNNYNN  
291200307BPTGC1 0307020900094+129    1012408440060                                                    096305            
291200307JPTGC1 03070209002008    106005410900006083006085006084004083005083004081                                      
291200307APTGC1 0307021000343436N1203854W     0014                                  NDBC                020YNNNNNNNYNN  
291200307BPTGC1 0307021000094+131    1012110450040                                                    118405            
291200307JPTGC1 03070210002010    118004591000004100004094006092007091005088006085                                      
291200307APTGC1 0307021100343436N1203854W     0014                                  NDBC                020YNNNNNNNYNN  
291200307BPTGC1 0307021100094+128    1011909730000                                                    107105            
291200307JPTGC1 03070211002009    118000331100359101357103000098004093005098005097                                      
291200307APTGC1 0307021200343436N1203854W     0014                                  NDBC                020YNNNNNNNYNN  
291200307BPTGC1 0307021200094+128    1012209210030                                                    099405            
291200307JPTGC1 03070212002008    112359211200001093359092001091001100359094002093                                      
291200307APTGC1 0307021300343436N1203854W     0014                                  NDBC                020YNNNNNNNYNN  
291200307BPTGC1 0307021300094+128    1012608850040                                                    097305            
291200307JPTGC1 03070213002009    106004361300004086004089005089004088002084000085                                      
291200307APTGC1 0307021400343436N1203854W     0014                                  NDBC                020YNNNNNNNYNN  
291200307BPTGC1 0307021400094+129    1013108390040                                                    099405            
291200307JPTGC1 03070214002009    109002171400003085003088003083003084003092005091                                      
291200307APTGC1 0307021500343436N1203854W     0014                                  NDBC                020YNNNNNNNYNN  
291200307BPTGC1 0307021500094+125    1013907820010                                                    088005            
291200307JPTGC1 03070215002007    105359181500359081354085359088001085359082001086                                      
291200307APTGC1 0307021600343436N1203854W     0014                                  NDBC                020YNNNNNNNYNN  
291200307BPTGC1 0307021600094+120    1014207263570                                                    081905            
291200307JPTGC1 03070216002005    088000001600000073357072000074000073000073358075                                      
291200307APTGC1 0307021700343436N1203854W     0014                                  NDBC                020YNNNNNNNYNN  
291200307BPTGC1 0307021700094+118    1014406383470                                                    066405            
291200307JPTGC1 03070217002005    082359271700346064349065355071358073001071002072                                      
291200307APTGC1 0307021800343436N1203854W     0014                                  NDBC                020YNNNNNNNYNN  
291200307BPTGC1 0307021800094+127    1014108393490                                                    089605            
291200307JPTGC1 03070218002007    093353541800352083359079358077001074352071350065                                      
291200307APTGC1 0307021900343436N1203854W     0014                                  NDBC                020YNNNNNNNYNN  
291200307BPTGC1 0307021900094+132    1014308393520                                                    093705            
291200307JPTGC1 03070219002005    095349321900350084350087348087350086349085350085                                      
291200307APTGC1 0307022000343436N1203854W     0014                                  NDBC                020YNNNNNNNYNN  
291200307BPTGC1 0307022000094+136    1014308083540                                                    086505            
291200307JPTGC1 03070220002005    096006412000357083358085356083354081355083353083                                      
291200307APTGC1 0307022100343436N1203854W     0014                                  NDBC                020YNNNNNNNYNN  
291200307BPTGC1 0307022100094+138    1014008553550                                                    093205            
291200307JPTGC1 03070221002005    098357552100356085359085000085000085357084356083                                      
291200307APTGC1 0307022200343436N1203854W     0014                                  NDBC                020YNNNNNNNYNN  
291200307BPTGC1 0307022200094+140    1013808650010                                                    090605            
291200307JPTGC1 03070222002004    097355072200000086000085000086357085353084356085                                      
291200307APTGC1 0307022300343436N1203854W     0014                                  NDBC                020YNNNNNNNYNN  
291200307BPTGC1 0307022300094+141    1013708550040                                                    095205            
291200307JPTGC1 03070223002005    102358282300001085359087359087358088000087000088                                      
291200307APTGC1 0307030000343436N1203854W     0014                                  NDBC                020YNNNNNNNYNN  
291200307BPTGC1 0307030000094+140    1013508290000                                                    090105            
291200307JPTGC1 03070300002005    099359070000001083000086000085001085000086359088                                      
291200307APTGC1 0307030100343436N1203854W     0014                                  NDBC                020YNNNNNNNYNN  
291200307BPTGC1 0307030100094+139    1013208800000                                                    095205            
291200307JPTGC1 03070301002004    095359540100000086001085001084000082001083002083                                      
291200307APTGC1 0307030200343436N1203854W     0014                                  NDBC                020YNNNNNNNYNN  
291200307BPTGC1 0307030200094+137    1012909470030                                                    099405            
291200307JPTGC1 03070302002005    102000570200000092000089001086001089359090359089                                      
291200307APTGC1 0307030300343436N1203854W     0014                                  NDBC                020YNNNNNNNYNN  
291200307BPTGC1 0307030300094+142    1013009683580                                                    104505            
291200307JPTGC1 03070303002006    112001460300356094359095359093356097358096002094                                      
291200307APTGC1 0307030400343436N1203854W     0014                                  NDBC                020YNNNNNNNYNN  
291200307BPTGC1 0307030400094+141    1013208340050                                                    096805            
291200307JPTGC1 03070304002008    110001050400004084002083002087004088001086000095                                      
291200307APTGC1 0307030500343436N1203854W     0014                                  NDBC                020YNNNNNNNYNN  
291200307BPTGC1 0307030500094+139    1013808850030                                                    100405            
291200307JPTGC1 03070305002009    113003510500001089005089005087002088003085003081                                      
291200307APTGC1 0307030600343436N1203854W     0014                                  NDBC                020YNNNNNNNYNN  
291200307BPTGC1 0307030600094+136    1013808650010                                                    101905            
291200307JPTGC1 03070306002009    114009230600003084000083004087009087005085003087                                      
291200307APTGC1 0307030700343436N1203854W     0014                                  NDBC                020YNNNNNNNYNN  
291200307BPTGC1 0307030700094+131    1013609470020                                                    104505            
291200307JPTGC1 03070307002007    110002240700001091000089001085002088003088004086                                      
291200307APTGC1 0307030800343436N1203854W     0014                                  NDBC                020YNNNNNNNYNN  
291200307BPTGC1 0307030800094+125    1013309520040                                                    107605            
291200307JPTGC1 03070308002007    117359530800359099355105353103354101358097001095                                      
291200307APTGC1 0307030900343436N1203854W     0014                                  NDBC                020YNNNNNNNYNN  
291200307BPTGC1 0307030900094+118    1013209993420                                                    109705            
291200307JPTGC1 03070309002007    117346270900342101341103351101349108352106000097                                      
291200307APTGC1 0307031000343436N1203854W     0014                                  NDBC                020YNNNNNNNYNN  
291200307BPTGC1 0307031000094+114    1013109833450                                                    107105            
291200307JPTGC1 03070310002007    117347541000350106348104356107358104359099352099                                      
291200307APTGC1 0307031100343436N1203854W     0014                                  NDBC                020YNNNNNNNYNN  
291200307BPTGC1 0307031100094+111    1013109940000                                                    108105            
291200307JPTGC1 03070311002006    114000521100001099358099353103359100353098351102                                      
291200307APTGC1 0307031200343436N1203854W     0014                                  NDBC                020YNNNNNNNYNN  
291200307BPTGC1 0307031200094+109    1012910763580                                                    114305            
291200307JPTGC1 03070312002007    119346511200351109351109359099355103355103000098                                      
291200307APTGC1 0307031300343436N1203854W     0014                                  NDBC                020YNNNNNNNYNN  
291200307BPTGC1 0307031300094+107    1013110763400                                                    113305            
291200307JPTGC1 03070313002006    119340431300341107341107343109343108345107350106                                      
291200307APTGC1 0307031400343436N1203854W     0014                                  NDBC                020YNNNNNNNYNN  
291200307BPTGC1 0307031400094+108    1013309943500                                                    106005            
291200307JPTGC1 03070314002006    114341141400348100347102349100344103340102342104                                      
291200307APTGC1 0307031500343436N1203854W     0014                                  NDBC                020YNNNNNNNYNN  
291200307BPTGC1 0307031500094+107    1013711123420                                                    117405            
291200307JPTGC1 03070315002007    124339561500340112340110339109342110346108348102                                      
291200307APTGC1 0307031600343436N1203854W     0014                                  NDBC                020YNNNNNNNYNN  
291200307BPTGC1 0307031600094+105    1014110763420                                                    113305            
291200307JPTGC1 03070316002005    122351401600346109348112345113348113353110345112                                      
291200307APTGC1 0307031700343436N1203854W     0014                                  NDBC                020YNNNNNNNYNN  
291200307BPTGC1 0307031700094+106    1014110663400                                                    111205            
291200307JPTGC1 03070317002006    117337421700340105339108338107341103345107343106                                      
291200307APTGC1 0307031800343436N1203854W     0014                                  NDBC                020YNNNNNNNYNN  
291200307BPTGC1 0307031800094+108    1014809733520                                                    104505            
291200307JPTGC1 03070318002007    116338131800352097347102342105340105338103339104                                      
291200307APTGC1 0307031900343436N1203854W     0014                                  NDBC                020YNNNNNNNYNN  
291200307BPTGC1 0307031900094+110    1014810553480                                                    111205            
291200307JPTGC1 03070319002007    118344341900345106349106345109352101347100352095                                      
291200307APTGC1 0307032000343436N1203854W     0014                                  NDBC                020YNNNNNNNYNN  
291200307BPTGC1 0307032000094+118    1014709833590                                                    107605            
291200307JPTGC1 03070320002007    117357122000002101358103001105000101000106349107                                      
291200307APTGC1 0307032100343436N1203854W     0014                                  NDBC                020YNNNNNNNYNN  
291200307BPTGC1 0307032100094+123    1014210403590                                                    112705            
291200307JPTGC1 03070321002006    118002282100001107359102002104003105003107001105                                      
291200307APTGC1 0307032200343436N1203854W     0014                                  NDBC                020YNNNNNNNYNN  
291200307BPTGC1 0307032200094+126    1013910760010                                                    114805            
291200307JPTGC1 03070322002006    122001022200001105000103359104003107001105001108                                      
291200307APTGC1 0307032300343436N1203854W     0014                                  NDBC                020YNNNNNNNYNN  
291200307BPTGC1 0307032300094+127    1013809160010                                                    100405            
291200307JPTGC1 03070323002008    119000112300001094000097359101001103359106000104                                      
291200307APTGC1 0307040000343436N1203854W     0014                                  NDBC                020YNNNNNNNYNN  
291200307BPTGC1 0307040000094+129    1013509060000                                                    099905            
291200307JPTGC1 03070400002007    109002340000000091359092000090001087002088001091                                      
291200307APTGC1 0307040100343436N1203854W     0014                                  NDBC                020YNNNNNNNYNN  
291200307BPTGC1 0307040100094+129    1013009780000                                                    106005            
291200307JPTGC1 03070401002007    111000240100359095359096357095001094359091000091                                      
291200307APTGC1 0307040200343436N1203854W     0014                                  NDBC                020YNNNNNNNYNN  
291200307BPTGC1 0307040200094+126    1012810403590                                                    114805            
291200307JPTGC1 03070402002007    117000390200001101003095000096001097001100000098                                      
291200307APTGC1 0307040300343436N1203854W     0014                                  NDBC                020YNNNNNNNYNN  
291200307BPTGC1 0307040300094+125    1012710043590                                                    106605            
291200307JPTGC1 03070403002007    123001570300000102359102003103001104001100001103                                      
291200307APTGC1 0307040400343436N1203854W     0014                                  NDBC                020YNNNNNNNYNN  
291200307BPTGC1 0307040400094+124    1012910970000                                                    122505            
291200307JPTGC1 03070404002008    124001420400000108359112000105001100001099001102                                      
291200307APTGC1 0307040500343436N1203854W     0014                                  NDBC                020YNNNNNNNYNN  
291200307BPTGC1 0307040500094+118    1013311480010                                                    121505            
291200307JPTGC1 03070405002007    127003110500000113000114002113001114000112001110                                      
291200307APTGC1 0307040600343436N1203854W     0014                                  NDBC                020YNNNNNNNYNN  
291200307BPTGC1 0307040600094+115    1013310550000                                                    122505            
291200307JPTGC1 03070406002008    125000080600000107001110359110359106001109001114                                      
291200307APTGC1 0307040700343436N1203854W     0014                                  NDBC                020YNNNNNNNYNN  
291200307BPTGC1 0307040700094+111    1013109940000                                                    109105            
291200307JPTGC1 03070407002007    125352080700359104359109356103358110356112353113                                      
291200307APTGC1 0307040800343436N1203854W     0014                                  NDBC                020YNNNNNNNYNN  
291200307BPTGC1 0307040800094+109    1013210190010                                                    112705            
291200307JPTGC1 03070408002007    118350470800002102352105354101352104348102358102                                      
291200307APTGC1 0307040900343436N1203854W     0014                                  NDBC                020YNNNNNNNYNN  
291200307BPTGC1 0307040900094+107    1013311023420                                                    115305            
291200307JPTGC1 03070409002007    121358270900349103357103358104354109359101001101                                      
291200307APTGC1 0307041000343436N1203854W     0014                                  NDBC                020YNNNNNNNYNN  
291200307BPTGC1 0307041000094+107    1012710863560                                                    116905            
291200307JPTGC1 03070410002007    122359561000359112000107001103357103352107348110                                      
291200307APTGC1 0307041100343436N1203854W     0014                                  NDBC                020YNNNNNNNYNN  
291200307BPTGC1 0307041100094+105    1012410910040                                                    119405            
291200307JPTGC1 03070411002007    129001521100001112001116357113002112359114002109                                      
291200307APTGC1 0307041200343436N1203854W     0014                                  NDBC                020YNNNNNNNYNN  
291200307BPTGC1 0307041200094+103    1012211630030                                                    121505            
291200307JPTGC1 03070412002007    132000261200000116355111001112000115357110359114                                      
291200307APTGC1 0307041300343436N1203854W     0014                                  NDBC                020YNNNNNNNYNN  
291200307BPTGC1 0307041300094+099    1012311380000                                                    121505            
291200307JPTGC1 03070413002007    128355561300357113359111000111358112358110359116                                      
291200307APTGC1 0307041400343436N1203854W     0014                                  NDBC                020YNNNNNNNYNN  
291200307BPTGC1 0307041400094+100    1012511583470                                                    123605            
291200307JPTGC1 03070414002008    135351451400348116348119350116359113354113001110                                      
291200307APTGC1 0307041500343436N1203854W     0014                                  NDBC                020YNNNNNNNYNN  
291200307BPTGC1 0307041500094+099    1012910093590                                                    113805            
291200307JPTGC1 03070415002008    126357071500001102359109358112357107000111357113                                      
291200307APTGC1 0307041600343436N1203854W     0014                                  NDBC                020YNNNNNNNYNN  
291200307BPTGC1 0307041600094+099    1013310600070                                                    116905            
291200307JPTGC1 03070416002007    121358081600002104356107359105358106000103358107                                      
291200307APTGC1 0307041700343436N1203854W     0014                                  NDBC                020YNNNNNNNYNN  
291200307BPTGC1 0307041700094+103    1013409880000                                                    108605            
291200307JPTGC1 03070417002007    117358001700001100000098001099000099000097000102                                      
291200307APTGC1 0307041800343436N1203854W     0014                                  NDBC                020YNNNNNNNYNN  
291200307BPTGC1 0307041800094+107    1013509320020                                                    100905            
291200307JPTGC1 03070418002007    110000281800000095000097359099000095002091001094                                      
291200307APTGC1 0307041900343436N1203854W     0014                                  NDBC                020YNNNNNNNYNN  
291200307BPTGC1 0307041900094+115    1013609420000                                                    104505            
291200307JPTGC1 03070419002006    108001191900003093001094000093001094001095001094                                      
291200307APTGC1 0307042000343436N1203854W     0014                                  NDBC                020YNNNNNNNYNN  
291200307BPTGC1 0307042000094+118    1013309060030                                                    096805            
291200307JPTGC1 03070420002006    111004312000001093000095001097001096001096000094                                      
291200307APTGC1 0307042100343436N1203854W     0014                                  NDBC                020YNNNNNNNYNN  
291200307BPTGC1 0307042100094+124    1013009583590                                                    103505            
291200307JPTGC1 03070421002007    111358552100358096001093359092002093001094000094                                      
291200307APTGC1 0307042200343436N1203854W     0014                                  NDBC                020YNNNNNNNYNN  
291200307BPTGC1 0307042200094+126    1012509470030                                                    104005            
291200307JPTGC1 03070422002006    112358362200002096000095000098359096359096000098                                      
291200307APTGC1 0307042300343436N1203854W     0014                                  NDBC                020YNNNNNNNYNN  
291200307BPTGC1 0307042300094+131    1012109730000                                                    113805            
291200307JPTGC1 03070423002008    125003532300002100000097001094002097000098000096                                      
291200307APTGC1 0307050000343436N1203854W     0014                                  NDBC                020YNNNNNNNYNN  
291200307BPTGC1 0307050000094+138    1011909833590                                                    114805            
291200307JPTGC1 03070500002009    122002450000358096000095002095000091000093002093                                      
291200307APTGC1 0307050100343436N1203854W     0014                                  NDBC                020YNNNNNNNYNN  
291200307BPTGC1 0307050100094+145    1011708803550                                                    103005            
291200307JPTGC1 03070501002010    121359240100001089002089000093358095002096000097                                      
291200307APTGC1 0307050200343436N1203854W     0014                                  NDBC                020YNNNNNNNYNN  
291200307BPTGC1 0307050200094+140    1011908080020                                                    092705            
291200307JPTGC1 03070502002010    114006010200002081359079000084358084003087003089                                      
291200307APTGC1 0307050300343436N1203854W     0014                                  NDBC                020YNNNNNNNYNN  
291200307BPTGC1 0307050300094+140    1011908193590                                                    089605            
291200307JPTGC1 03070503002009    114000350300004085002084000090000089002086000084                                      
291200307APTGC1 0307050400343436N1203854W     0014                                  NDBC                020YNNNNNNNYNN  
291200307BPTGC1 0307050400094+139    1011908750050                                                    108105            
291200307JPTGC1 03070504002010    123004560400005088005089004088004091002091002087                                      
291200307APTGC1 0307050500343436N1203854W     0014                                  NDBC                020YNNNNNNNYNN  
291200307BPTGC1 0307050500094+136    1012508030060                                                    099405            
291200307JPTGC1 03070505002011    117002100500005084006083006084006091005091004091                                      
291200307APTGC1 0307050600343436N1203854W     0014                                  NDBC                020YNNNNNNNYNN  
291200307BPTGC1 0307050600094+134    1012408440090                                                    103005            
291200307JPTGC1 03070506002010    113006500600009085006084005085007083005082003081                                      
291200307APTGC1 0307050700343436N1203854W     0014                                  NDBC                020YNNNNNNNYNN  
291200307BPTGC1 0307050700094+129    1012308440060                                                    103005            
291200307JPTGC1 03070507002011    114007330700009086008084007086008086008086009082                                      
291200307APTGC1 0307050800343436N1203854W     0014                                  NDBC                020YNNNNNNNYNN  
291200307BPTGC1 0307050800094+122    1011908440060                                                    096305            
291200307JPTGC1 03070508002010    115006280800003088004090006090006092007087006086                                      
291200307APTGC1 0307050900343436N1203854W     0014                                  NDBC                020YNNNNNNNYNN  
291200307BPTGC1 0307050900094+116    1011507820030                                                    092705            
291200307JPTGC1 03070509002007    102003000900003078004080003080003080003079002082                                      
291200307APTGC1 0307051000343436N1203854W     0014                                  NDBC                020YNNNNNNNYNN  
291200307BPTGC1 0307051000094+114    1011707570050                                                    086005            
291200307JPTGC1 03070510002007    094000131000004071003071001073001077001077002078                                      
291200307APTGC1 0307051100343436N1203854W     0014                                  NDBC                020YNNNNNNNYNN  
291200307BPTGC1 0307051100094+117    1011507820070                                                    098305            
291200307JPTGC1 03070511002011    105012281100007079009079012080012081009074006072                                      
291200307APTGC1 0307051200343436N1203854W     0014                                  NDBC                020YNNNNNNNYNN  
291200307BPTGC1 0307051200094+118    1011507930100                                                    092705            
291200307JPTGC1 03070512002010    099008011200011076012078009076007074007078005078                                      
291200307APTGC1 0307051300343436N1203854W     0014                                  NDBC                020YNNNNNNNYNN  
291200307BPTGC1 0307051300094+122    1011907520080                                                    089105            
291200307JPTGC1 03070513002009    097009411300008074008075008074011071009076005079                                      
291200307APTGC1 0307051400343436N1203854W     0014                                  NDBC                020YNNNNNNNYNN  
291200307BPTGC1 0307051400094+125    1012007770090                                                    090105            
291200307JPTGC1 03070514002011    100011491400009078010074011074012075012075010073                                      
291200307APTGC1 0307051500343436N1203854W     0014                                  NDBC                020YNNNNNNNYNN  
291200307BPTGC1 0307051500094+127    1012507820000                                                    090605            
291200307JPTGC1 03070515002008    099004551500003077004076002076003076004078008077                                      
291200307APTGC1 0307051600343436N1203854W     0014                                  NDBC                020YNNNNNNNYNN  
291200307BPTGC1 0307051600094+127    1012608653580                                                    101405            
291200307JPTGC1 03070516002008    104003141600000083001079359079000080002078000075                                      
291200307APTGC1 0307051700343436N1203854W     0014                                  NDBC                020YNNNNNNNYNN  
291200307BPTGC1 0307051700094+108    1012908393560                                                    093205            
291200307JPTGC1 03070517002006    102344311700355085355091342092354086357084359085                                      
291200307APTGC1 0307051800343436N1203854W     0014                                  NDBC                020YNNNNNNNYNN  
291200307BPTGC1 0307051800094+115    1013207520030                                                    088505            
291200307JPTGC1 03070518002006    094356081800002077002077003079000081359083356085                                      
291200307APTGC1 0307051900343436N1203854W     0014                                  NDBC                020YNNNNNNNYNN  
291200307BPTGC1 0307051900094+130    1013207723590                                                    088505            
291200307JPTGC1 03070519002009    101000351900359079359080001081001076002078004076                                      
291200307APTGC1 0307052000343436N1203854W     0014                                  NDBC                020YNNNNNNNYNN  
291200307BPTGC1 0307052000094+123    1013308650060                                                    094705            
291200307JPTGC1 03070520002008    105003062000001085359080001079001081356080002080                                      
291200307APTGC1 0307052100343436N1203854W     0014                                  NDBC                020YNNNNNNNYNN  
291200307BPTGC1 0307052100094+121    1013208653590                                                    091605            
291200307JPTGC1 03070521002006    104002412100355089000090359086001087001085004088                                      
291200307APTGC1 0307052200343436N1203854W     0014                                  NDBC                020YNNNNNNNYNN  
291200307BPTGC1 0307052200094+126    1013108750000                                                    092705            
291200307JPTGC1 03070522002006    103000572200000088001089001086002086358086001086                                      
291200307APTGC1 0307052300343436N1203854W     0014                                  NDBC                020YNNNNNNNYNN  
291200307BPTGC1 0307052300094+126    1012709060000                                                    101905            
291200307JPTGC1 03070523002007    112358252300000094000093359095000094001093000090                                      
291200307APTGC1 0307060000343436N1203854W     0014                                  NDBC                020YNNNNNNNYNN  
291200307BPTGC1 0307060000094+122    1012509523530                                                    104005            
291200307JPTGC1 03070600002007    119001260000355097354096356096000098358096000096                                      
291200307APTGC1 0307060100343436N1203854W     0014                                  NDBC                020YNNNNNNNYNN  
291200307BPTGC1 0307060100094+121    1012310143560                                                    109105            
291200307JPTGC1 03070601002007    119001410100357101001101356101355099355101357097                                      
291200307APTGC1 0307060200343436N1203854W     0014                                  NDBC                020YNNNNNNNYNN  
291200307BPTGC1 0307060200094+119    1012111073580                                                    126605            
291200307JPTGC1 03070602002008    131357560200357112355114354110351113351107347109                                      
291200307APTGC1 0307060300343436N1203854W     0014                                  NDBC                020YNNNNNNNYNN  
291200307BPTGC1 0307060300094+116    1012112203510                                                    138005            
291200307JPTGC1 03070603002010    142355410300350119349118358117359111358110358108                                      
291200307APTGC1 0307060400343436N1203854W     0014                                  NDBC                020YNNNNNNNYNN  
291200307BPTGC1 0307060400094+114    1012111483580                                                    129205            
291200307JPTGC1 03070604002009    137350350400356114353113349116350119353115350113                                      
291200307APTGC1 0307060500343436N1203854W     0014                                  NDBC                020YNNNNNNNYNN  
291200307BPTGC1 0307060500094+110    1012311843510                                                    124105            
291200307JPTGC1 03070605002009    137348030500343120352117349117355112352114346119                                      
291200307APTGC1 0307060600343436N1203854W     0014                                  NDBC                020YNNNNNNNYNN  
291200307BPTGC1 0307060600094+107    1012310193420                                                    113805            
291200307JPTGC1 03070606002008    132348400600343112343115347118344115347117347119                                      
291200307APTGC1 0307060700343436N1203854W     0014                                  NDBC                020YNNNNNNNYNN  
291200307BPTGC1 0307060700094+103    1011911073420                                                    116305            
291200307JPTGC1 03070607002007    127344360700344110344112343112347110347110345108                                      
291200307APTGC1 0307060800343436N1203854W     0014                                  NDBC                020YNNNNNNNYNN  
291200307BPTGC1 0307060800094+101    1011611743450                                                    122005            
291200307JPTGC1 03070608002007    124347520800349117358108358107000104354106348111                                      
291200307APTGC1 0307060900343436N1203854W     0014                                  NDBC                020YNNNNNNNYNN  
291200307BPTGC1 0307060900094+100    1011110913510                                                    115305            
291200307JPTGC1 03070609002006    130344110900346112349110348111350112351111358110                                      
291200307APTGC1 0307061000343436N1203854W     0014                                  NDBC                020YNNNNNNNYNN  
291200307BPTGC1 0307061000094+098    1011010553520                                                    114305            
291200307JPTGC1 03070610002007    121341101000352106001102349103358100350107348109                                      
291200307APTGC1 0307061100343436N1203854W     0014                                  NDBC                020YNNNNNNNYNN  
291200307BPTGC1 0307061100094+098    1011110303470                                                    112705            
291200307JPTGC1 03070611002008    125355071100350109350108352105000106348111353109                                      
291200307APTGC1 0307061200343436N1203854W     0014                                  NDBC                020YNNNNNNNYNN  
291200307BPTGC1 0307061200094+101    1011310600030                                                    123005            
291200307JPTGC1 03070612002008    132349211200358109357109358110348112352108347108                                      
291200307APTGC1 0307061300343436N1203854W     0014                                  NDBC                020YNNNNNNNYNN  
291200307BPTGC1 0307061300094+100    1011511383570                                                    122505            
291200307JPTGC1 03070613002008    128356491300353110355113347108355108351112358106                                      
291200307APTGC1 0307061400343436N1203854W     0014                                  NDBC                020YNNNNNNNYNN  
291200307BPTGC1 0307061400094+101    1011811273490                                                    123005            
291200307JPTGC1 03070614002008    135343411400348111347116353107356110350110353108                                      
291200307APTGC1 0307061500343436N1203854W     0014                                  NDBC                020YNNNNNNNYNN  
291200307BPTGC1 0307061500094+101    1012011173510                                                    121505            
291200307JPTGC1 03070615002008    130348091500357111357106347113350113352111347116                                      
291200307APTGC1 0307061600343436N1203854W     0014                                  NDBC                020YNNNNNNNYNN  
291200307BPTGC1 0307061600094+102    1012211023490                                                    117405            
291200307JPTGC1 03070616002008    125344461600351106344111350107354108355106353106                                      
291200307APTGC1 0307061700343436N1203854W     0014                                  NDBC                020YNNNNNNNYNN  
291200307BPTGC1 0307061700094+104    1012509830020                                                    110205            
291200307JPTGC1 03070617002009    123349011700357097355098356096358098356101349110                                      
291200307APTGC1 0307061800343436N1203854W     0014                                  NDBC                020YNNNNNNNYNN  
291200307BPTGC1 0307061800094+106    1012809580010                                                    105005            
291200307JPTGC1 03070618002008    121357461800001100356105355102358101354101001096                                      
291200307APTGC1 0307061900343436N1203854W     0014                                  NDBC                020YNNNNNNNYNN  
291200307BPTGC1 0307061900094+110    1013109473560                                                    104505            
291200307JPTGC1 03070619002008    117355561900354099353102000099359099357099358096                                      
291200307APTGC1 0307062000343436N1203854W     0014                                  NDBC                020YNNNNNNNYNN  
291200307BPTGC1 0307062000094+117    1013109730000                                                    105505            
291200307JPTGC1 03070620002008    116354012000002097358097001099001100000100359096                                      
291200307APTGC1 0307062100343436N1203854W     0014                                  NDBC                020YNNNNNNNYNN  
291200307BPTGC1 0307062100094+119    1012810713540                                                    121505            
291200307JPTGC1 03070621002007    122000102100351103356103359102357102359098000100                                      
291200307APTGC1 0307062200343436N1203854W     0014                                  NDBC                020YNNNNNNNYNN  
291200307BPTGC1 0307062200094+123    1012810043540                                                    107105            
291200307JPTGC1 03070622002007    122358202200356099358100000102358103354102354105                                      
291200307APTGC1 0307062300343436N1203854W     0014                                  NDBC                020YNNNNNNNYNN  
291200307BPTGC1 0307062300094+123    1012608803500                                                    095205            
291200307JPTGC1 03070623002007    121358132300352094353094353097355095356096356097                                      
291200307APTGC1 0307070000343436N1203854W     0014                                  NDBC                020YNNNNNNNYNN  
291200307BPTGC1 0307070000094+122    1012209373490                                                    103505            
291200307JPTGC1 03070700002006    112355470000351096354096354092352094352091353089                                      
291200307APTGC1 0307070100343436N1203854W     0014                                  NDBC                020YNNNNNNNYNN  
291200307BPTGC1 0307070100094+124    1012008853570                                                    095805            
291200307JPTGC1 03070701002007    115354450100000090355091358093354093352097354096                                      
291200307APTGC1 0307070200343436N1203854W     0014                                  NDBC                020YNNNNNNNYNN  
291200307BPTGC1 0307070200094+124    1011709683570                                                    107105            
291200307JPTGC1 03070702002007    111357470200359097357094347096354093356089355090                                      
291200307APTGC1 0307070300343436N1203854W     0014                                  NDBC                020YNNNNNNNYNN  
291200307BPTGC1 0307070300094+122    1011710043510                                                    108105            
291200307JPTGC1 03070703002007    120001220300354100358096359098358098357098359098                                      
291200307APTGC1 0307070400343436N1203854W     0014                                  NDBC                020YNNNNNNNYNN  
291200307BPTGC1 0307070400094+117    1011609833560                                                    106005            
291200307JPTGC1 03070704002007    119346280400354102350099343098345103348098350098                                      
291200307APTGC1 0307070500343436N1203854W     0014                                  NDBC                020YNNNNNNNYNN  
291200307BPTGC1 0307070500094+114    1011710603570                                                    118405            
291200307JPTGC1 03070705002008    124351260500356101358100356102351101351095354097                                      
291200307APTGC1 0307070600343436N1203854W     0014                                  NDBC                020YNNNNNNNYNN  
291200307BPTGC1 0307070600094+111    1011711433450                                                    124605            
291200307JPTGC1 03070706002008    125355580600353107358102359101000102000104000101                                      
291200307APTGC1 0307070700343436N1203854W     0014                                  NDBC                020YNNNNNNNYNN  
291200307BPTGC1 0307070700094+109    1011709943580                                                    113805            
291200307JPTGC1 03070707002008    128345420700358107350113346113348109349109343112                                      
291200307APTGC1 0307070800343436N1203854W     0014                                  NDBC                020YNNNNNNNYNN  
291200307BPTGC1 0307070800094+105    1011210193440                                                    108605            
291200307JPTGC1 03070708002007    120000010800342102340102341100347100358098001101                                      
291200307APTGC1 0307070900343436N1203854W     0014                                  NDBC                020YNNNNNNNYNN  
291200307BPTGC1 0307070900094+103    1010810303420                                                    111205            
291200307JPTGC1 03070709002006    117342540900342104342102342100343100343100345099                                      
291200307APTGC1 0307071000343436N1203854W     0014                                  NDBC                020YNNNNNNNYNN  
291200307BPTGC1 0307071000094+102    1010909943410                                                    107105            
291200307JPTGC1 03070710002006    120345291000344103342099340105345107345105344104                                      
291200307APTGC1 0307071100343436N1203854W     0014                                  NDBC                020YNNNNNNNYNN  
291200307BPTGC1 0307071100094+100    1010811333490                                                    117905            
291200307JPTGC1 03070711002008    126353401100350115352109352106340106343101343104                                      
291200307APTGC1 0307071200343436N1203854W     0014                                  NDBC                020YNNNNNNNYNN  
291200307BPTGC1 0307071200094+101    1011011020000                                                    116905            
291200307JPTGC1 03070712002008    134350071200353107356100354105356103352107349110                                      
291200307APTGC1 0307071300343436N1203854W     0014                                  NDBC                020YNNNNNNNYNN  
291200307BPTGC1 0307071300094+100    1011410863470                                                    122005            
291200307JPTGC1 03070713002008    127338401300351106344112348113348108354103357102                                      
291200307APTGC1 0307071400343436N1203854W     0014                                  NDBC                020YNNNNNNNYNN  
291200307BPTGC1 0307071400094+100    1011909943500                                                    108105            
291200307JPTGC1 03070714002008    127349221400350103348104348110347111345105350109                                      
291200307APTGC1 0307071500343436N1203854W     0014                                  NDBC                020YNNNNNNNYNN  
291200307BPTGC1 0307071500094+101    1012409473570                                                    100905            
291200307JPTGC1 03070715002008    118347411500359097350101351094351093358095358097                                      
291200307APTGC1 0307071600343436N1203854W     0014                                  NDBC                020YNNNNNNNYNN  
291200307BPTGC1 0307071600094+101    1012708803590                                                    095805            
291200307JPTGC1 03070716002006    110001121600359092359094000096000094358096359097                                      
291200307APTGC1 0307071700343436N1203854W     0014                                  NDBC                020YNNNNNNNYNN  
291200307BPTGC1 0307071700094+103    1013008963570                                                    097305            
291200307JPTGC1 03070717002006    108358291700000091001091358093358093359092000090                                      
291200307APTGC1 0307071800343436N1203854W     0014                                  NDBC                020YNNNNNNNYNN  
291200307BPTGC1 0307071800094+105    1013109210000                                                    101905            
291200307JPTGC1 03070718002007    105359051800359090359090359088001090001089000090                                      
291200307APTGC1 0307071900343436N1203854W     0014                                  NDBC                020YNNNNNNNYNN  
291200307BPTGC1 0307071900094+105    1013508913530                                                    097305            
291200307JPTGC1 03070719002006    103002021900354091357090355090000088359085000091                                      
291200307APTGC1 0307072000343436N1203854W     0014                                  NDBC                020YNNNNNNNYNN  
291200307BPTGC1 0307072000094+109    1013409423590                                                    102405            
291200307JPTGC1 03070720002006    107000382000356092354093359092000091359091352092                                      
291200307APTGC1 0307072100343436N1203854W     0014                                  NDBC                020YNNNNNNNYNN  
291200307BPTGC1 0307072100094+117    1013309780070                                                    109105            
291200307JPTGC1 03070721002007    118005202100001094001097000093357097359096359095                                      
291200307APTGC1 0307072200343436N1203854W     0014                                  NDBC                020YNNNNNNNYNN  
291200307BPTGC1 0307072200094+122    1013209210000                                                    114805            
291200307JPTGC1 03070722002009    117001142200000090002092002093000093359093000092                                      
291200307APTGC1 0307072300343436N1203854W     0014                                  NDBC                020YNNNNNNNYNN  
291200307BPTGC1 0307072300094+127    1013308910030                                                    105505            
291200307JPTGC1 03070723002009    118004562300004091001090000085359090359086000090                                      
291200307APTGC1 0307080000343436N1203854W     0014                                  NDBC                020YNNNNNNNYNN  
291200307BPTGC1 0307080000094+130    1013108750000                                                    105505            
291200307JPTGC1 03070800002008    116003150000000093002093002092002092002095003092                                      
291200307APTGC1 0307080100343436N1203854W     0014                                  NDBC                020YNNNNNNNYNN  
291200307BPTGC1 0307080100094+131    1012809060030                                                    110705            
291200307JPTGC1 03070801002008    116359000100000089001089001092001093000094001092                                      
291200307APTGC1 0307080200343436N1203854W     0014                                  NDBC                020YNNNNNNNYNN  
291200307BPTGC1 0307080200094+130    1012909273560                                                    106005            
291200307JPTGC1 03070802002008    125357310200355093001091359092358090000090359090                                      
291200307APTGC1 0307080300343436N1203854W     0014                                  NDBC                020YNNNNNNNYNN  
291200307BPTGC1 0307080300094+130    1012808960010                                                    103505            
291200307JPTGC1 03070803002008    113357110300358089357089358088000090358093359093                                      
291200307APTGC1 0307080400343436N1203854W     0014                                  NDBC                020YNNNNNNNYNN  
291200307BPTGC1 0307080400094+128    1012708340090                                                    100905            
291200307JPTGC1 03070804002010    116008440400006083006091007088002090358092357090                                      
291200307APTGC1 0307080500343436N1203854W     0014                                  NDBC                020YNNNNNNNYNN  
291200307BPTGC1 0307080500094+122    1013008750000                                                    097805            
291200307JPTGC1 03070805002009    112005160500359086356089000084003084005084006083                                      
291200307APTGC1 0307080600343436N1203854W     0014                                  NDBC                020YNNNNNNNYNN  
291200307BPTGC1 0307080600094+118    1013107360020                                                    083905            
291200307JPTGC1 03070806002011    110357110600356078000070354084356089354096358090                                      
291200307APTGC1 0307080700343436N1203854W     0014                                  NDBC                020YNNNNNNNYNN  
291200307BPTGC1 0307080700094+115    1012707263590                                                    084905            
291200307JPTGC1 03070807002007    094359150700000071357071359073000072359077358077                                      
291200307APTGC1 0307080800343436N1203854W     0014                                  NDBC                020YNNNNNNNYNN  
291200307BPTGC1 0307080800094+115    1012507573540                                                    082905            
291200307JPTGC1 03070808002007    091357460800355077357077355078000073359069001072                                      
291200307APTGC1 0307080900343436N1203854W     0014                                  NDBC                020YNNNNNNNYNN  
291200307BPTGC1 0307080900094+113    1012307050020                                                    078805            
291200307JPTGC1 03070809002007    094359380900359071000073359073001069359070355072                                      
291200307APTGC1 0307081000343436N1203854W     0014                                  NDBC                020YNNNNNNNYNN  
291200307BPTGC1 0307081000094+112    1012107520020                                                    087505            
291200307JPTGC1 03070810002007    088001581000001074359074000069000071000069001072                                      
291200307APTGC1 0307081100343436N1203854W     0014                                  NDBC                020YNNNNNNNYNN  
291200307BPTGC1 0307081100094+113    1011808190060                                                    092705            
291200307JPTGC1 03070811002009    101008401100007080008080005081006079004079001075                                      
291200307APTGC1 0307081200343436N1203854W     0014                                  NDBC                020YNNNNNNNYNN  
291200307BPTGC1 0307081200094+112    1011906690100                                                    084405            
291200307JPTGC1 03070812002010    098011291200009073010070009073011068008072006072                                      
291200307APTGC1 0307081300343436N1203854W     0014                                  NDBC                020YNNNNNNNYNN  
291200307BPTGC1 0307081300094+112    1012307670130                                                    093205            
291200307JPTGC1 03070813002010    097009251300012073009073011068009071010071011071                                      
291200307APTGC1 0307081400343436N1203854W     0014                                  NDBC                020YNNNNNNNYNN  
291200307BPTGC1 0307081400094+112    1012606590090                                                    077705            
291200307JPTGC1 03070814002010    095010081400012070011069009071009069010073010068                                      
291200307APTGC1 0307081500343436N1203854W     0014                                  NDBC                020YNNNNNNNYNN  
291200307BPTGC1 0307081500094+120    1013206430060                                                    081305            
291200307JPTGC1 03070815002009    091009261500006067006064007067009069011067012068                                      
291200307APTGC1 0307081600343436N1203854W     0014                                  NDBC                020YNNNNNNNYNN  
291200307BPTGC1 0307081600094+126    1013706900070                                                    086005            
291200307JPTGC1 03070816002009    100006311600000071004071000071003068005067008071                                      
291200307APTGC1 0307081700343436N1203854W     0014                                  NDBC                020YNNNNNNNYNN  
291200307BPTGC1 0307081700094+128    1013906693580                                                    081905            
291200307JPTGC1 03070817002009    100359451700358071357074003072000071004074002073                                      
291200307APTGC1 0307081800343436N1203854W     0014                                  NDBC                020YNNNNNNNYNN  
291200307BPTGC1 0307081800094+130    1014406593570                                                    080805            
291200307JPTGC1 03070818002007    097359181800003072358074002073000074359073359072                                      
291200307APTGC1 0307081900343436N1203854W     0014                                  NDBC                020YNNNNNNNYNN  
291200307BPTGC1 0307081900094+132    1014707770030                                                    089605            
291200307JPTGC1 03070819002007    094000551900001076358073000073000076001075357074                                      
291200307APTGC1 0307082000343436N1203854W     0014                                  NDBC                020YNNNNNNNYNN  
291200307BPTGC1 0307082000094+132    1014508190000                                                    094205            
291200307JPTGC1 03070820002007    103358092000000079359075358077359076001077358079                                      
291200307APTGC1 0307082100343436N1203854W     0014                                  NDBC                020YNNNNNNNYNN  
291200307BPTGC1 0307082100094+134    1014207573560                                                    086005            
291200307JPTGC1 03070821002007    100001352100001078001072000078001079358076000078                                      
291200307APTGC1 0307082200343436N1203854W     0014                                  NDBC                020YNNNNNNNYNN  
291200307BPTGC1 0307082200094+133    1014007213560                                                    080805            
291200307JPTGC1 03070822002008    098000032200001072000072355074000077357076359078                                      
291200307APTGC1 0307082300343436N1203854W     0014                                  NDBC                020YNNNNNNNYNN  
291200307BPTGC1 0307082300094+135    1013507820050                                                    087005            
291200307JPTGC1 03070823002006    093002512300001079000078002076001077002077359074                                      
291200307APTGC1 0307090000343436N1203854W     0014                                  NDBC                020YNNNNNNNYNN  
291200307BPTGC1 0307090000094+136    1013108553590                                                    100905            
291200307JPTGC1 03070900002008    106001510000001089001085000083002084000082001078                                      
291200307APTGC1 0307090100343436N1203854W     0014                                  NDBC                020YNNNNNNNYNN  
291200307BPTGC1 0307090100094+138    1012709010030                                                    105005            
291200307JPTGC1 03070901002007    105001590100001087001085000085359090357090359088                                      
291200307APTGC1 0307090200343436N1203854W     0014                                  NDBC                020YNNNNNNNYNN  
291200307BPTGC1 0307090200094+134    1012508493570                                                    093205            
291200307JPTGC1 03070902002007    111000060200359084000086357085359085000086000089                                      
291200307APTGC1 0307090300343436N1203854W     0014                                  NDBC                020YNNNNNNNYNN  
291200307BPTGC1 0307090300094+133    1012309163560                                                    110205            
291200307JPTGC1 03070903002008    114000410300001093358090359088000086359085359085                                      
291200307APTGC1 0307090400343436N1203854W     0014                                  NDBC                020YNNNNNNNYNN  
291200307BPTGC1 0307090400094+133    1012010760080                                                    119905            
291200307JPTGC1 03070904002014    140010420400008106007107011102009094004100003100                                      
291200307APTGC1 0307090500343436N1203854W     0014                                  NDBC                020YNNNNNNNYNN  
291200307BPTGC1 0307090500094+128    1012310600070                                                    130205            
291200307JPTGC1 03070905002014    149008100500006103006103008105008109007114006114                                      
291200307APTGC1 0307090600343436N1203854W     0014                                  NDBC                020YNNNNNNNYNN  
291200307BPTGC1 0307090600094+122    1012408960010                                                    109105            
291200307JPTGC1 03070906002012    144006140600004094004097003099005105005107007102                                      
291200307APTGC1 0307090700343436N1203854W     0014                                  NDBC                020YNNNNNNNYNN  
291200307BPTGC1 0307090700094+116    1011909210030                                                    107105            
291200307JPTGC1 03070907002009    116002130700002091004090002088003096002095003095                                      
291200307APTGC1 0307090800343436N1203854W     0014                                  NDBC                020YNNNNNNNYNN  
291200307BPTGC1 0307090800094+112    1011309110020                                                    106605            
291200307JPTGC1 03070908002008    113003520800001094000091000088358089001086002088                                      
291200307APTGC1 0307090900343436N1203854W     0014                                  NDBC                020YNNNNNNNYNN  
291200307BPTGC1 0307090900094+109    1012005200040                                                    062805            
291200307JPTGC1 03070909002015    112359220900002057003066359080000089000091001091                                      
291200307APTGC1 0307091000343436N1203854W     0014                                  NDBC                020YNNNNNNNYNN  
291200307BPTGC1 0307091000094+109    1012703350220                                                    040705            
291200307JPTGC1 03070910002009    068007011000015031018037017036020043013042009050                                      
291200307APTGC1 0307091100343436N1203854W     0014                                  NDBC                020YNNNNNNNYNN  
291200307BPTGC1 0307091100094+108    1012604323520                                                    047905            
291200307JPTGC1 03070911002007    058357411100348043341047010044015039018034024032                                      
291200307APTGC1 0307091200343436N1203854W     0014                                  NDBC                020YNNNNNNNYNN  
291200307BPTGC1 0307091200094+099    1012805203420                                                    056605            
291200307JPTGC1 03070912002005    063335141200338053337052335053334051331055341046                                      
291200307APTGC1 0307091300343436N1203854W     0014                                  NDBC                020YNNNNNNNYNN  
291200307BPTGC1 0307091300094+098    1013305250000                                                    056105            
291200307JPTGC1 03070913002004    060341221300002050000046357050347053359048340051                                      
291200307APTGC1 0307091400343436N1203854W     0014                                  NDBC                020YNNNNNNNYNN  
291200307BPTGC1 0307091400094+097    1013804480040                                                    050405            
291200307JPTGC1 03070914002004    063358191400349049354053358052350050358052353051                                      
291200307APTGC1 0307091500343436N1203854W     0014                                  NDBC                020YNNNNNNNYNN  
291200307BPTGC1 0307091500094+097    1014403963410                                                    046805            
291200307JPTGC1 03070915002005    055000301500354038002041357045345046351042354045                                      
291200307APTGC1 0307091600343436N1203854W     0014                                  NDBC                020YNNNNNNNYNN  
291200307BPTGC1 0307091600094+097    1014504273350                                                    046805            
291200307JPTGC1 03070916002004    057347481600339044346046355042349043357039356039                                      
291200307APTGC1 0307091700343436N1203854W     0014                                  NDBC                020YNNNNNNNYNN  
291200307BPTGC1 0307091700094+099    1014504173440                                                    047905            
291200307JPTGC1 03070917002004    054352441700347043348044352044344044335043342038                                      
291200307APTGC1 0307091800343436N1203854W     0014                                  NDBC                020YNNNNNNNYNN  
291200307BPTGC1 0307091800094+099    1014703863360                                                    042205            
291200307JPTGC1 03070918002004    053338471800334041337046348044352040354038356039                                      
291200307APTGC1 0307091900343436N1203854W     0014                                  NDBC                020YNNNNNNNYNN  
291200307BPTGC1 0307091900094+099    1015004023400                                                    044805            
291200307JPTGC1 03070919002004    052322111900339038336041339039341040328045334043                                      
291200307APTGC1 0307092000343436N1203854W     0014                                  NDBC                020YNNNNNNNYNN  
291200307BPTGC1 0307092000094+101    1014903553470                                                    039105            
291200307JPTGC1 03070920002004    050339302000349039344039341038339040343037343040                                      
291200307APTGC1 0307092100343436N1203854W     0014                                  NDBC                020YNNNNNNNYNN  
291200307BPTGC1 0307092100094+107    1014703553420                                                    042705            
291200307JPTGC1 03070921002004    045328202100347039342036347036339036336033348035                                      
291200307APTGC1 0307092200343436N1203854W     0014                                  NDBC                020YNNNNNNNYNN  
291200307BPTGC1 0307092200094+113    1014204993400                                                    055105            
291200307JPTGC1 03070922002004    056333512200335049343040348041352041346042351040                                      
291200307APTGC1 0307092300343436N1203854W     0014                                  NDBC                020YNNNNNNNYNN  
291200307BPTGC1 0307092300094+114    1013807003370                                                    074105            
291200307JPTGC1 03070923002007    075341532300339069334066335059336058335057335051                                      
291200307APTGC1 0307100000343436N1203854W     0014                                  NDBC                020YNNNNNNNYNN  
291200307BPTGC1 0307100000094+112    1013108753580                                                    093705            
291200307JPTGC1 03071000002008    100344450000348088343090344082344080343074335072                                      
291200307APTGC1 0307100100343436N1203854W     0014                                  NDBC                020YNNNNNNNYNN  
291200307BPTGC1 0307100100094+113    1012710453470                                                    115305            
291200307JPTGC1 03071001002007    115347590100347098347095346088344087345090351089                                      
291200307APTGC1 0307100200343436N1203854W     0014                                  NDBC                020YNNNNNNNYNN  
291200307BPTGC1 0307100200094+112    1012610970020                                                    118905            
291200307JPTGC1 03071002002007    119002580200002106000102000102000104358102350099                                      
291200307APTGC1 0307100300343436N1203854W     0014                                  NDBC                020YNNNNNNNYNN  
291200307BPTGC1 0307100300094+111    1012810240010                                                    110205            
291200307JPTGC1 03071003002007    116356170300001099000096000099356101358103359103                                      
291200307APTGC1 0307100400343436N1203854W     0014                                  NDBC                020YNNNNNNNYNN  
291200307BPTGC1 0307100400094+110    1012810760000                                                    119405            
291200307JPTGC1 03071004002009    126359560400359108000106000103002100001098001098                                      
291200307APTGC1 0307100500343436N1203854W     0014                                  NDBC                020YNNNNNNNYNN  
291200307BPTGC1 0307100500094+108    1013210810000                                                    116305            
291200307JPTGC1 03071005002008    125002000500359110359110358107000108001106000110                                      
291200307APTGC1 0307100600343436N1203854W     0014                                  NDBC                020YNNNNNNNYNN  
291200307BPTGC1 0307100600094+106    1013111223590                                                    118905            
291200307JPTGC1 03071006002007    126359570600359108001110000107001107001107000107                                      
291200307APTGC1 0307100700343436N1203854W     0014                                  NDBC                020YNNNNNNNYNN  
291200307BPTGC1 0307100700094+104    1012910913510                                                    119405            
291200307JPTGC1 03071007002006    123000360700346110347111001109359109000108358107                                      
291200307APTGC1 0307100800343436N1203854W     0014                                  NDBC                020YNNNNNNNYNN  
291200307BPTGC1 0307100800094+101    1012910763550                                                    120505            
291200307JPTGC1 03071008002007    123004300800353110359104352107356110357107357109                                      
291200307APTGC1 0307100900343436N1203854W     0014                                  NDBC                020YNNNNNNNYNN  
291200307BPTGC1 0307100900094+099    1012611333410                                                    118905            
291200307JPTGC1 03071009002007    124341560900341113346113344113356109355108357107                                      
291200307APTGC1 0307101000343436N1203854W     0014                                  NDBC                020YNNNNNNNYNN  
291200307BPTGC1 0307101000094+097    1012411270010                                                    126105            
291200307JPTGC1 03071010002007    129358541000358114358116351116343117349116342116                                      
291200307APTGC1 0307101100343436N1203854W     0014                                  NDBC                020YNNNNNNNYNN  
291200307BPTGC1 0307101100094+096    1012210860010                                                    122505            
291200307JPTGC1 03071011002010    131359091100000105000103001105359110358115000114                                      
291200307APTGC1 0307101200343436N1203854W     0014                                  NDBC                020YNNNNNNNYNN  
291200307BPTGC1 0307101200094+093    1012211123590                                                    122005            
291200307JPTGC1 03071012002009    133349291200000109357117348118348119357108356109                                      
291200307APTGC1 0307101300343436N1203854W     0014                                  NDBC                020YNNNNNNNYNN  
291200307BPTGC1 0307101300094+095    1012410713510                                                    119405            
291200307JPTGC1 03071013002009    129343501300351114349111344109341114356103357107                                      
291200307APTGC1 0307101400343436N1203854W     0014                                  NDBC                020YNNNNNNNYNN  
291200307BPTGC1 0307101400094+095    1012810763460                                                    112705            
291200307JPTGC1 03071014002008    130344231400349108348110344113344116346118346116                                      
291200307APTGC1 0307101500343436N1203854W     0014                                  NDBC                020YNNNNNNNYNN  
291200307BPTGC1 0307101500094+091    1013410453510                                                    111705            
291200307JPTGC1 03071015002006    115341411500347105341105343102346103344102343106                                      
291200307APTGC1 0307101600343436N1203854W     0014                                  NDBC                020YNNNNNNNYNN  
291200307BPTGC1 0307101600094+094    1013610553540                                                    111205            
291200307JPTGC1 03071016002008    120351151600349105349107356101352104347105354097                                      
291200307APTGC1 0307101700343436N1203854W     0014                                  NDBC                020YNNNNNNNYNN  
291200307BPTGC1 0307101700094+102    1014009993560                                                    110705            
291200307JPTGC1 03071017002008    122358021700001105359103000103000105002107359109                                      
291200307APTGC1 0307101800343436N1203854W     0014                                  NDBC                020YNNNNNNNYNN  
291200307BPTGC1 0307101800094+106    1014310350020                                                    111205            
291200307JPTGC1 03071018002007    119355111800000101359100001101000103001103359105                                      
291200307APTGC1 0307101900343436N1203854W     0014                                  NDBC                020YNNNNNNNYNN  
291200307BPTGC1 0307101900094+120    1014708850020                                                    098305            
291200307JPTGC1 03071019002008    110001021900001089359092000092000091359095000098                                      
291200307APTGC1 0307102000343436N1203854W     0014                                  NDBC                020YNNNNNNNYNN  
291200307BPTGC1 0307102000094+122    1014409833570                                                    109105            
291200307JPTGC1 03071020002008    111359542000359098359095000093000095001091000091                                      
291200307APTGC1 0307102100343436N1203854W     0014                                  NDBC                020YNNNNNNNYNN  
291200307BPTGC1 0307102100094+132    1014110450030                                                    119905            
291200307JPTGC1 03071021002009    126359572100000102359099357097001094002092000094                                      
291200307APTGC1 0307102200343436N1203854W     0014                                  NDBC                020YNNNNNNNYNN  
291200307BPTGC1 0307102200094+141    1013810763570                                                    123605            
291200307JPTGC1 03071022002010    133002432200000102001109358106000103000102000103                                      
291200307APTGC1 0307102300343436N1203854W     0014                                  NDBC                020YNNNNNNNYNN  
291200307BPTGC1 0307102300094+135    1013909880000                                                    110205            
291200307JPTGC1 03071023002011    136000022300359108358106359099002096003102000107                                      
291200307APTGC1 0307110000343436N1203854W     0014                                  NDBC                020YNNNNNNNYNN  
291200307BPTGC1 0307110000094+135    1013410350030                                                    125605            
291200307JPTGC1 03071100002010    129001090000001100004098002100003104001100001100                                      
291200307APTGC1 0307110100343436N1203854W     0014                                  NDBC                020YNNNNNNNYNN  
291200307BPTGC1 0307110100094+138    1013010450010                                                    112205            
291200307JPTGC1 03071101002010    128002500100001102003100004100003098003100002102                                      
291200307APTGC1 0307110200343436N1203854W     0014                                  NDBC                020YNNNNNNNYNN  
291200307BPTGC1 0307110200094+146    1012810810000                                                    126605            
291200307JPTGC1 03071102002010    140008300200001108358109359111357114358111001107                                      
291200307APTGC1 0307110300343436N1203854W     0014                                  NDBC                020YNNNNNNNYNN  
291200307BPTGC1 0307110300094+150    1012810910050                                                    128705            
291200307JPTGC1 03071103002013    151001420300359111002116003111003103007100005101                                      
291200307APTGC1 0307110400343436N1203854W     0014                                  NDBC                020YNNNNNNNYNN  
291200307BPTGC1 0307110400094+144    1013408650020                                                    100905            
291200307JPTGC1 03071104002012    144002010400000101001099000096356103358111000114                                      
291200307APTGC1 0307110500343436N1203854W     0014                                  NDBC                020YNNNNNNNYNN  
291200307BPTGC1 0307110500094+142    1013807620050                                                    087005            
291200307JPTGC1 03071105002009    112000120500004077001082005084358080000090000088                                      
291200307APTGC1 0307110600343436N1203854W     0014                                  NDBC                020YNNNNNNNYNN  
291200307BPTGC1 0307110600094+132    1014007520020                                                    082905            
291200307JPTGC1 03071106002009    102006110600003081003081003077004077004076003077                                      
291200307APTGC1 0307110700343436N1203854W     0014                                  NDBC                020YNNNNNNNYNN  
291200307BPTGC1 0307110700094+137    1014309470110                                                    115305            
291200307JPTGC1 03071107002012    116008510700009090011083008080005081005078002078                                      
291200307APTGC1 0307110800343436N1203854W     0014                                  NDBC                020YNNNNNNNYNN  
291200307BPTGC1 0307110800094+131    1014309470070                                                    105505            
291200307JPTGC1 03071108002011    117008050800008084007083006086008089010090009092                                      
291200307APTGC1 0307110900343436N1203854W     0014                                  NDBC                020YNNNNNNNYNN  
291200307BPTGC1 0307110900094+123    1014008850040                                                    099905            
291200307JPTGC1 03071109002008    113005130900003087003084003086003085004083003085                                      
291200307APTGC1 0307111000343436N1203854W     0014                                  NDBC                020YNNNNNNNYNN  
291200307BPTGC1 0307111000094+112    1013710503440                                                    111705            
291200307JPTGC1 03071110002010    116355481000345103353099000090001086001087003088                                      
291200307APTGC1 0307111100343436N1203854W     0014                                  NDBC                020YNNNNNNNYNN  
291200307BPTGC1 0307111100094+101    1013411383570                                                    122005            
291200307JPTGC1 03071111002007    122356581100357110355107353105353106356102351106                                      
291200307APTGC1 0307111200343436N1203854W     0014                                  NDBC                020YNNNNNNNYNN  
291200307BPTGC1 0307111200094+100    1013211073580                                                    124105            
291200307JPTGC1 03071112002007    127350151200355110358112357113352113349116353110                                      
291200307APTGC1 0307111300343436N1203854W     0014                                  NDBC                020YNNNNNNNYNN  
291200307BPTGC1 0307111300094+099    1013111633580                                                    127705            
291200307JPTGC1 03071113002007    129355471300357114356116357113354111348112355111                                      
291200307APTGC1 0307111400343436N1203854W     0014                                  NDBC                020YNNNNNNNYNN  
291200307BPTGC1 0307111400094+098    1013311483520                                                    123005            
291200307JPTGC1 03071114002008    135358271400358116353116359115357117358117357117                                      
291200307APTGC1 0307111500343436N1203854W     0014                                  NDBC                020YNNNNNNNYNN  
291200307BPTGC1 0307111500094+098    1014010193540                                                    111705            
291200307JPTGC1 03071115002008    129352011500354104359111358114357116355116357116                                      
291200307APTGC1 0307111600343436N1203854W     0014                                  NDBC                020YNNNNNNNYNN  
291200307BPTGC1 0307111600094+098    1014809110010                                                    102405            
291200307JPTGC1 03071116002008    117357081600359091355099358098358101355105357107                                      
291200307APTGC1 0307111700343436N1203854W     0014                                  NDBC                020YNNNNNNNYNN  
291200307BPTGC1 0307111700094+101    1015506953330                                                    073605            
291200307JPTGC1 03071117002015    101357121700336067355054000061000073000090356092                                      
291200307APTGC1 0307111800343436N1203854W     0014                                  NDBC                020YNNNNNNNYNN  
291200307BPTGC1 0307111800094+103    1016105823300                                                    060705            
291200307JPTGC1 03071118002012    081332021800330057332058346043357046343065335075                                      
291200307APTGC1 0307111900343436N1203854W     0014                                  NDBC                020YNNNNNNNYNN  
291200307BPTGC1 0307111900094+108    1016304220020                                                    047405            
291200307JPTGC1 03071119002007    061333011900356036357032000035357037354042342051                                      
291200307APTGC1 0307112000343436N1203854W     0014                                  NDBC                020YNNNNNNNYNN  
291200307BPTGC1 0307112000094+113    1016204893350                                                    053005            
291200307JPTGC1 03071120002007    072331422000331050330057343055350051355047359042                                      
291200307APTGC1 0307112100343436N1203854W     0014                                  NDBC                020YNNNNNNNYNN  
291200307BPTGC1 0307112100094+115    1015905203340                                                    055105            
291200307JPTGC1 03071121002004    061331072100332052332051335048334048335049331051                                      
291200307APTGC1 0307112200343436N1203854W     0014                                  NDBC                020YNNNNNNNYNN  
291200307BPTGC1 0307112200094+117    1015306800010                                                    075205            
291200307JPTGC1 03071122002008    080328332200000067353061338068334057336050332051                                      
291200307APTGC1 0307112300343436N1203854W     0014                                  NDBC                020YNNNNNNNYNN  
291200307BPTGC1 0307112300094+115    1014509273560                                                    099905            
291200307JPTGC1 03071123002009    105359512300355092355091358083358079357076357071                                      
291200307APTGC1 0307120000343436N1203854W     0014                                  NDBC                020YNNNNNNNYNN  
291200307BPTGC1 0307120000094+113    1013611693590                                                    123005            
291200307JPTGC1 03071200002008    124352570000353112352109349109346105344105351099                                      
291200307APTGC1 0307120100343436N1203854W     0014                                  NDBC                020YNNNNNNNYNN  
291200307BPTGC1 0307120100094+109    1013012203580                                                    132805            
291200307JPTGC1 03071201002007    133358110100358118356116359118354112356117358115                                      
291200307APTGC1 0307120200343436N1203854W     0014                                  NDBC                020YNNNNNNNYNN  
291200307BPTGC1 0307120200094+107    1012811690010                                                    128205            
291200307JPTGC1 03071202002008    136353160200356117359119356118353121352121357119                                      
291200307APTGC1 0307120300343436N1203854W     0014                                  NDBC                020YNNNNNNNYNN  
291200307BPTGC1 0307120300094+104    1012810660000                                                    114305            
291200307JPTGC1 03071203002008    133346030300355108000111359115357118000117351122                                      
291200307APTGC1 0307120400343436N1203854W     0014                                  NDBC                020YNNNNNNNYNN  
291200307BPTGC1 0307120400094+114    1013607570050                                                    084905            
291200307JPTGC1 03071204002011    117003370400005082004094003096003098003098002099                                      
291200307APTGC1 0307120500343436N1203854W     0014                                  NDBC                020YNNNNNNNYNN  
291200307BPTGC1 0307120500094+120    1014105150030                                                    060705            
291200307JPTGC1 03071205002011    102005000500004051008049012049008056007062006069                                      
291200307APTGC1 0307120600343436N1203854W     0014                                  NDBC                020YNNNNNNNYNN  
291200307BPTGC1 0307120600094+121    1014402570090                                                    035505            
291200307JPTGC1 03071206002008    063003010600005028006030011034010037017041007046                                      
291200307APTGC1 0307120700343436N1203854W     0014                                  NDBC                020YNNNNNNNYNN  
291200307BPTGC1 0307120700094+121    1014702273500                                                    026305            
291200307JPTGC1 03071207002004    034014000700352021357018000018007020003025007024                                      
291200307APTGC1 0307120800343436N1203854W     0014                                  NDBC                020YNNNNNNNYNN  
291200307BPTGC1 0307120800094+121    1014902630030                                                    031905            
291200307JPTGC1 03071208002003    034001540800001026004026005027001026002026358024                                      
291200307APTGC1 0307120900343436N1203854W     0014                                  NDBC                020YNNNNNNNYNN  
291200307BPTGC1 0307120900094+120    1014902320020                                                    026305            
291200307JPTGC1 03071209002003    031001040900001023003022001024002027003024003026                                      
291200307APTGC1 0307121000343436N1203854W     0014                                  NDBC                020YNNNNNNNYNN  
291200307BPTGC1 0307121000094+116    1014702883580                                                    032905            
291200307JPTGC1 03071210002003    035005401000001029002028002029001026359024000024                                      
291200307APTGC1 0307121100343436N1203854W     0014                                  NDBC                020YNNNNNNNYNN  
